{
  "_format": "hh-sol-artifact-1",
  "contractName": "CustomToken",
  "sourceName": "contracts/facets/TokenFacet.sol",
  "abi": [
    {
      "inputs": [],
      "name": "ECDSA__InvalidS",
      "type": "error"
    },
    {
      "inputs": [],
      "name": "ECDSA__InvalidSignature",
      "type": "error"
    },
    {
      "inputs": [],
      "name": "ECDSA__InvalidV",
      "type": "error"
    },
    {
      "inputs": [],
      "name": "ERC20Base__ApproveFromZeroAddress",
      "type": "error"
    },
    {
      "inputs": [],
      "name": "ERC20Base__ApproveToZeroAddress",
      "type": "error"
    },
    {
      "inputs": [],
      "name": "ERC20Base__BurnExceedsBalance",
      "type": "error"
    },
    {
      "inputs": [],
      "name": "ERC20Base__BurnFromZeroAddress",
      "type": "error"
    },
    {
      "inputs": [],
      "name": "ERC20Base__InsufficientAllowance",
      "type": "error"
    },
    {
      "inputs": [],
      "name": "ERC20Base__MintToZeroAddress",
      "type": "error"
    },
    {
      "inputs": [],
      "name": "ERC20Base__TransferExceedsBalance",
      "type": "error"
    },
    {
      "inputs": [],
      "name": "ERC20Base__TransferFromZeroAddress",
      "type": "error"
    },
    {
      "inputs": [],
      "name": "ERC20Base__TransferToZeroAddress",
      "type": "error"
    },
    {
      "inputs": [],
      "name": "ERC20Extended__ExcessiveAllowance",
      "type": "error"
    },
    {
      "inputs": [],
      "name": "ERC20Extended__InsufficientAllowance",
      "type": "error"
    },
    {
      "inputs": [],
      "name": "ERC20Permit__ExpiredDeadline",
      "type": "error"
    },
    {
      "inputs": [],
      "name": "ERC20Permit__InvalidSignature",
      "type": "error"
    },
    {
      "anonymous": false,
      "inputs": [
        {
          "indexed": true,
          "internalType": "address",
          "name": "owner",
          "type": "address"
        },
        {
          "indexed": true,
          "internalType": "address",
          "name": "spender",
          "type": "address"
        },
        {
          "indexed": false,
          "internalType": "uint256",
          "name": "value",
          "type": "uint256"
        }
      ],
      "name": "Approval",
      "type": "event"
    },
    {
      "anonymous": false,
      "inputs": [
        {
          "indexed": true,
          "internalType": "address",
          "name": "from",
          "type": "address"
        },
        {
          "indexed": true,
          "internalType": "address",
          "name": "to",
          "type": "address"
        },
        {
          "indexed": false,
          "internalType": "uint256",
          "name": "value",
          "type": "uint256"
        }
      ],
      "name": "Transfer",
      "type": "event"
    },
    {
      "inputs": [],
      "name": "DOMAIN_SEPARATOR",
      "outputs": [
        {
          "internalType": "bytes32",
          "name": "domainSeparator",
          "type": "bytes32"
        }
      ],
      "stateMutability": "view",
      "type": "function"
    },
    {
      "inputs": [
        {
          "internalType": "address",
          "name": "holder",
          "type": "address"
        },
        {
          "internalType": "address",
          "name": "spender",
          "type": "address"
        }
      ],
      "name": "allowance",
      "outputs": [
        {
          "internalType": "uint256",
          "name": "",
          "type": "uint256"
        }
      ],
      "stateMutability": "view",
      "type": "function"
    },
    {
      "inputs": [
        {
          "internalType": "address",
          "name": "spender",
          "type": "address"
        },
        {
          "internalType": "uint256",
          "name": "amount",
          "type": "uint256"
        }
      ],
      "name": "approve",
      "outputs": [
        {
          "internalType": "bool",
          "name": "",
          "type": "bool"
        }
      ],
      "stateMutability": "nonpayable",
      "type": "function"
    },
    {
      "inputs": [
        {
          "internalType": "address",
          "name": "account",
          "type": "address"
        }
      ],
      "name": "balanceOf",
      "outputs": [
        {
          "internalType": "uint256",
          "name": "",
          "type": "uint256"
        }
      ],
      "stateMutability": "view",
      "type": "function"
    },
    {
      "inputs": [
        {
          "internalType": "uint256",
          "name": "amount",
          "type": "uint256"
        }
      ],
      "name": "burn",
      "outputs": [],
      "stateMutability": "nonpayable",
      "type": "function"
    },
    {
      "inputs": [],
      "name": "decimals",
      "outputs": [
        {
          "internalType": "uint8",
          "name": "",
          "type": "uint8"
        }
      ],
      "stateMutability": "view",
      "type": "function"
    },
    {
      "inputs": [
        {
          "internalType": "address",
          "name": "spender",
          "type": "address"
        },
        {
          "internalType": "uint256",
          "name": "amount",
          "type": "uint256"
        }
      ],
      "name": "decreaseAllowance",
      "outputs": [
        {
          "internalType": "bool",
          "name": "",
          "type": "bool"
        }
      ],
      "stateMutability": "nonpayable",
      "type": "function"
    },
    {
      "inputs": [
        {
          "internalType": "address",
          "name": "spender",
          "type": "address"
        },
        {
          "internalType": "uint256",
          "name": "amount",
          "type": "uint256"
        }
      ],
      "name": "increaseAllowance",
      "outputs": [
        {
          "internalType": "bool",
          "name": "",
          "type": "bool"
        }
      ],
      "stateMutability": "nonpayable",
      "type": "function"
    },
    {
      "inputs": [
        {
          "internalType": "address",
          "name": "to",
          "type": "address"
        },
        {
          "internalType": "uint256",
          "name": "amount",
          "type": "uint256"
        }
      ],
      "name": "mint",
      "outputs": [],
      "stateMutability": "nonpayable",
      "type": "function"
    },
    {
      "inputs": [],
      "name": "name",
      "outputs": [
        {
          "internalType": "string",
          "name": "",
          "type": "string"
        }
      ],
      "stateMutability": "view",
      "type": "function"
    },
    {
      "inputs": [
        {
          "internalType": "address",
          "name": "owner",
          "type": "address"
        }
      ],
      "name": "nonces",
      "outputs": [
        {
          "internalType": "uint256",
          "name": "",
          "type": "uint256"
        }
      ],
      "stateMutability": "view",
      "type": "function"
    },
    {
      "inputs": [
        {
          "internalType": "address",
          "name": "owner",
          "type": "address"
        },
        {
          "internalType": "address",
          "name": "spender",
          "type": "address"
        },
        {
          "internalType": "uint256",
          "name": "amount",
          "type": "uint256"
        },
        {
          "internalType": "uint256",
          "name": "deadline",
          "type": "uint256"
        },
        {
          "internalType": "uint8",
          "name": "v",
          "type": "uint8"
        },
        {
          "internalType": "bytes32",
          "name": "r",
          "type": "bytes32"
        },
        {
          "internalType": "bytes32",
          "name": "s",
          "type": "bytes32"
        }
      ],
      "name": "permit",
      "outputs": [],
      "stateMutability": "nonpayable",
      "type": "function"
    },
    {
      "inputs": [],
      "name": "symbol",
      "outputs": [
        {
          "internalType": "string",
          "name": "",
          "type": "string"
        }
      ],
      "stateMutability": "view",
      "type": "function"
    },
    {
      "inputs": [],
      "name": "totalSupply",
      "outputs": [
        {
          "internalType": "uint256",
          "name": "",
          "type": "uint256"
        }
      ],
      "stateMutability": "view",
      "type": "function"
    },
    {
      "inputs": [
        {
          "internalType": "address",
          "name": "recipient",
          "type": "address"
        },
        {
          "internalType": "uint256",
          "name": "amount",
          "type": "uint256"
        }
      ],
      "name": "transfer",
      "outputs": [
        {
          "internalType": "bool",
          "name": "",
          "type": "bool"
        }
      ],
      "stateMutability": "nonpayable",
      "type": "function"
    },
    {
      "inputs": [
        {
          "internalType": "address",
          "name": "holder",
          "type": "address"
        },
        {
          "internalType": "address",
          "name": "recipient",
          "type": "address"
        },
        {
          "internalType": "uint256",
          "name": "amount",
          "type": "uint256"
        }
      ],
      "name": "transferFrom",
      "outputs": [
        {
          "internalType": "bool",
          "name": "",
          "type": "bool"
        }
      ],
      "stateMutability": "nonpayable",
      "type": "function"
    }
  ],
  "bytecode": "0x608060405234801561001057600080fd5b50610eac806100206000396000f3fe608060405234801561001057600080fd5b50600436106101005760003560e01c806342966c6811610097578063a457c2d711610066578063a457c2d7146101ef578063a9059cbb14610202578063d505accf14610215578063dd62ed3e1461022857600080fd5b806342966c68146101ae57806370a08231146101c15780637ecebe00146101d457806395d89b41146101e757600080fd5b8063313ce567116100d3578063313ce5671461016f5780633644e5151461017e578063395093511461018657806340c10f191461019957600080fd5b806306fdde0314610105578063095ea7b31461012357806318160ddd1461014657806323b872dd1461015c575b600080fd5b61010d61023b565b60405161011a9190610c57565b60405180910390f35b610136610131366004610cc1565b61026c565b604051901515815260200161011a565b61014e610282565b60405190815260200161011a565b61013661016a366004610ceb565b6102ac565b6040516012815260200161011a565b61014e6102c1565b610136610194366004610cc1565b6102cb565b6101ac6101a7366004610cc1565b6102d7565b005b6101ac6101bc366004610d27565b6102e5565b61014e6101cf366004610d40565b6102f2565b61014e6101e2366004610d40565b6102fd565b61010d610308565b6101366101fd366004610cc1565b61032b565b610136610210366004610cc1565b610337565b6101ac610223366004610d5b565b610344565b61014e610236366004610dce565b61035c565b606061026760408051808201909152600d81526c2234b0b6b7b732102a37b5b2b760991b602082015290565b905090565b6000610279338484610368565b90505b92915050565b60006102677fc991b2e918acaba8e5721668ed0b1982684e5a8692a621bcd2d7ef326bb015b65490565b60006102b984848461043d565b949350505050565b6000610267610460565b600061027983836104a2565b6102e182826104e1565b5050565b6102ef33826105c3565b50565b600061027c826106b1565b600061027c826106e2565b6060610267604080518082019091526004815263222a25a760e11b602082015290565b6000610279838361070a565b6000610279338484610720565b61035387878787878787610851565b50505050505050565b600061027983836109f1565b60006001600160a01b03841661039157604051635a68b7ab60e01b815260040160405180910390fd5b6001600160a01b0383166103b7576040516262920b60e91b815260040160405180910390fd5b6001600160a01b0384811660008181527fc991b2e918acaba8e5721668ed0b1982684e5a8692a621bcd2d7ef326bb015b56020908152604080832094881680845294825291829020869055815186815291517f8c5be1e5ebec7d5bd14f71427d1e84f3dd0314c0f7b2291e5b200ac8c7c3b9259281900390910190a35060019392505050565b600061044a843384610a3b565b610455848484610720565b506001949350505050565b4660009081527fbb9c3660b51e1fafa886fcf600a68efa81371bd50359eccba98f0c4fff2cfeba60205260408120549081900361049f57610267610a7d565b90565b6000806104af33856109f1565b90508281018111156104d45760405163d256efb160e01b815260040160405180910390fd5b6102b93385858401610368565b6001600160a01b0382166105085760405163da007acd60e01b815260040160405180910390fd5b7fc991b2e918acaba8e5721668ed0b1982684e5a8692a621bcd2d7ef326bb015b68054600080516020610e5783398151915291839160009061054b908490610e17565b90915550506001600160a01b03831660009081526020829052604081208054849290610578908490610e17565b90915550506040518281526001600160a01b038416906000907fddf252ad1be2c89b69c2b068fc378daa952ba7f163c4a11628f55a4df523b3ef9060200160405180910390a3505050565b6001600160a01b0382166105ea576040516378f1627760e11b815260040160405180910390fd5b6001600160a01b0382166000908152600080516020610e578339815191526020819052604090912054808311156106345760405163b1d35b2360e01b815260040160405180910390fd5b6001600160a01b03841660009081526020839052604081208483039055600283018054859290610665908490610e2a565b90915550506040518381526000906001600160a01b038616907fddf252ad1be2c89b69c2b068fc378daa952ba7f163c4a11628f55a4df523b3ef9060200160405180910390a350505050565b6000600080516020610e578339815191525b6001600160a01b03909216600090815260209290925250604090205490565b60007fbb9c3660b51e1fafa886fcf600a68efa81371bd50359eccba98f0c4fff2cfeb96106c3565b6000610717338484610a3b565b50600192915050565b60006001600160a01b038416610749576040516368551d5f60e01b815260040160405180910390fd5b6001600160a01b038316610770576040516320a2645160e21b815260040160405180910390fd5b6001600160a01b0384166000908152600080516020610e578339815191526020819052604090912054808411156107ba57604051637183160b60e01b815260040160405180910390fd5b6001600160a01b038087166000908152602084905260408082208785039055918716815290812080548692906107f1908490610e17565b92505081905550846001600160a01b0316866001600160a01b03167fddf252ad1be2c89b69c2b068fc378daa952ba7f163c4a11628f55a4df523b3ef8660405161083d91815260200190565b60405180910390a350600195945050505050565b834211156108725760405163384f7ce560e21b815260040160405180910390fd5b6001600160a01b03871660009081527fbb9c3660b51e1fafa886fcf600a68efa81371bd50359eccba98f0c4fff2cfeb9602081815260408084205481517f6e71edae12b1b97f4d1f60370fef10105fa2faae0126114a169c64845d6126c981528084018d90528083018c9052606081018b90526080810182905260a081018a905260c090204686527fbb9c3660b51e1fafa886fcf600a68efa81371bd50359eccba98f0c4fff2cfeba9093529084205492939192909181900361094e57610937610a7d565b466000908152600186016020526040902081905590505b60405161190160f01b81526002810182905260228101849052604290206000610979828a8a8a610b4d565b90508c6001600160a01b0316816001600160a01b0316146109ad57604051637570072b60e11b815260040160405180910390fd5b6001600160a01b038d1660009081526020879052604081208054916109d183610e3d565b91905055506109e18d8d8d610368565b5050505050505050505050505050565b6001600160a01b0391821660009081527fc991b2e918acaba8e5721668ed0b1982684e5a8692a621bcd2d7ef326bb015b56020908152604080832093909416825291909152205490565b6000610a4784846109f1565b905080821115610a695760405162e14ccf60e11b815260040160405180910390fd5b610a768484848403610368565b5050505050565b60007f8b73c3c69bb8fe3d512ecc4cf759cc79239f7b179b0ffacaa9a75d522b39400f610aca60408051808201909152600d81526c2234b0b6b7b732102a37b5b2b760991b602082015290565b80516020918201206040805180820190915260018152603160f81b9201919091527fc89efdaa54c0f20c7adf612882df0950f5a951637e0307cdcb4c672f298b8bc646604080516020810195909552840192909252606083015260808201523060a082015260c00160405160208183030381529060405280519060200120905090565b60007f7fffffffffffffffffffffffffffffff5d576e7357a4501ddfe92f46681b20a0821115610b905760405163e4a61add60e01b815260040160405180910390fd5b8360ff16601b14158015610ba857508360ff16601c14155b15610bc657604051630acd54a960e41b815260040160405180910390fd5b6040805160008082526020820180845288905260ff871692820192909252606081018590526080810184905260019060a0016020604051602081039080840390855afa158015610c1a573d6000803e3d6000fd5b5050604051601f1901519150506001600160a01b038116610c4e576040516347f3b32760e11b815260040160405180910390fd5b95945050505050565b600060208083528351808285015260005b81811015610c8457858101830151858201604001528201610c68565b506000604082860101526040601f19601f8301168501019250505092915050565b80356001600160a01b0381168114610cbc57600080fd5b919050565b60008060408385031215610cd457600080fd5b610cdd83610ca5565b946020939093013593505050565b600080600060608486031215610d0057600080fd5b610d0984610ca5565b9250610d1760208501610ca5565b9150604084013590509250925092565b600060208284031215610d3957600080fd5b5035919050565b600060208284031215610d5257600080fd5b61027982610ca5565b600080600080600080600060e0888a031215610d7657600080fd5b610d7f88610ca5565b9650610d8d60208901610ca5565b95506040880135945060608801359350608088013560ff81168114610db157600080fd5b9699959850939692959460a0840135945060c09093013592915050565b60008060408385031215610de157600080fd5b610dea83610ca5565b9150610df860208401610ca5565b90509250929050565b634e487b7160e01b600052601160045260246000fd5b8082018082111561027c5761027c610e01565b8181038181111561027c5761027c610e01565b600060018201610e4f57610e4f610e01565b506001019056fec991b2e918acaba8e5721668ed0b1982684e5a8692a621bcd2d7ef326bb015b4a264697066735822122044dbfaf66a7a9356576b08fd66e75c68ab28f429577b7e8ebb1b41f3ae0a449e64736f6c63430008110033",
  "linkReferences": {},
  "deployedLinkReferences": {}
}