{"contracts/facets/NFTFacet.sol":{"CustomNFT":{"abi":[{"inputs":[],"name":"AddressUtils__NotContract","type":"error"},{"inputs":[],"name":"ERC165Base__InvalidInterfaceId","type":"error"},{"inputs":[],"name":"ERC721Base__BalanceQueryZeroAddress","type":"error"},{"inputs":[],"name":"ERC721Base__ERC721ReceiverNotImplemented","type":"error"},{"inputs":[],"name":"ERC721Base__InvalidOwner","type":"error"},{"inputs":[],"name":"ERC721Base__MintToZeroAddress","type":"error"},{"inputs":[],"name":"ERC721Base__NonExistentToken","type":"error"},{"inputs":[],"name":"ERC721Base__NotOwnerOrApproved","type":"error"},{"inputs":[],"name":"ERC721Base__NotTokenOwner","type":"error"},{"inputs":[],"name":"ERC721Base__SelfApproval","type":"error"},{"inputs":[],"name":"ERC721Base__TokenAlreadyMinted","type":"error"},{"inputs":[],"name":"ERC721Base__TransferToZeroAddress","type":"error"},{"inputs":[],"name":"ERC721Metadata__NonExistentToken","type":"error"},{"inputs":[],"name":"EnumerableMap__IndexOutOfBounds","type":"error"},{"inputs":[],"name":"EnumerableMap__NonExistentKey","type":"error"},{"inputs":[],"name":"EnumerableSet__IndexOutOfBounds","type":"error"},{"inputs":[],"name":"SolidStateERC721__PayableApproveNotSupported","type":"error"},{"inputs":[],"name":"SolidStateERC721__PayableTransferNotSupported","type":"error"},{"anonymous":false,"inputs":[{"indexed":true,"internalType":"address","name":"owner","type":"address"},{"indexed":true,"internalType":"address","name":"operator","type":"address"},{"indexed":true,"internalType":"uint256","name":"tokenId","type":"uint256"}],"name":"Approval","type":"event"},{"anonymous":false,"inputs":[{"indexed":true,"internalType":"address","name":"owner","type":"address"},{"indexed":true,"internalType":"address","name":"operator","type":"address"},{"indexed":false,"internalType":"bool","name":"approved","type":"bool"}],"name":"ApprovalForAll","type":"event"},{"anonymous":false,"inputs":[{"indexed":true,"internalType":"address","name":"from","type":"address"},{"indexed":true,"internalType":"address","name":"to","type":"address"},{"indexed":true,"internalType":"uint256","name":"tokenId","type":"uint256"}],"name":"Transfer","type":"event"},{"inputs":[{"internalType":"address","name":"operator","type":"address"},{"internalType":"uint256","name":"tokenId","type":"uint256"}],"name":"approve","outputs":[],"stateMutability":"payable","type":"function"},{"inputs":[{"internalType":"address","name":"account","type":"address"}],"name":"balanceOf","outputs":[{"internalType":"uint256","name":"","type":"uint256"}],"stateMutability":"view","type":"function"},{"inputs":[{"internalType":"uint256","name":"tokenId","type":"uint256"}],"name":"getApproved","outputs":[{"internalType":"address","name":"","type":"address"}],"stateMutability":"view","type":"function"},{"inputs":[{"internalType":"address","name":"account","type":"address"},{"internalType":"address","name":"operator","type":"address"}],"name":"isApprovedForAll","outputs":[{"internalType":"bool","name":"","type":"bool"}],"stateMutability":"view","type":"function"},{"inputs":[],"name":"mintNft","outputs":[],"stateMutability":"nonpayable","type":"function"},{"inputs":[],"name":"name","outputs":[{"internalType":"string","name":"","type":"string"}],"stateMutability":"view","type":"function"},{"inputs":[{"internalType":"uint256","name":"tokenId","type":"uint256"}],"name":"ownerOf","outputs":[{"internalType":"address","name":"","type":"address"}],"stateMutability":"view","type":"function"},{"inputs":[{"internalType":"address","name":"from","type":"address"},{"internalType":"address","name":"to","type":"address"},{"internalType":"uint256","name":"tokenId","type":"uint256"}],"name":"safeTransferFrom","outputs":[],"stateMutability":"payable","type":"function"},{"inputs":[{"internalType":"address","name":"from","type":"address"},{"internalType":"address","name":"to","type":"address"},{"internalType":"uint256","name":"tokenId","type":"uint256"},{"internalType":"bytes","name":"data","type":"bytes"}],"name":"safeTransferFrom","outputs":[],"stateMutability":"payable","type":"function"},{"inputs":[{"internalType":"address","name":"operator","type":"address"},{"internalType":"bool","name":"status","type":"bool"}],"name":"setApprovalForAll","outputs":[],"stateMutability":"nonpayable","type":"function"},{"inputs":[{"internalType":"bytes4","name":"interfaceId","type":"bytes4"}],"name":"supportsInterface","outputs":[{"internalType":"bool","name":"","type":"bool"}],"stateMutability":"view","type":"function"},{"inputs":[],"name":"symbol","outputs":[{"internalType":"string","name":"","type":"string"}],"stateMutability":"view","type":"function"},{"inputs":[{"internalType":"uint256","name":"index","type":"uint256"}],"name":"tokenByIndex","outputs":[{"internalType":"uint256","name":"","type":"uint256"}],"stateMutability":"view","type":"function"},{"inputs":[{"internalType":"address","name":"owner","type":"address"},{"internalType":"uint256","name":"index","type":"uint256"}],"name":"tokenOfOwnerByIndex","outputs":[{"internalType":"uint256","name":"","type":"uint256"}],"stateMutability":"view","type":"function"},{"inputs":[{"internalType":"uint256","name":"tokenId","type":"uint256"}],"name":"tokenURI","outputs":[{"internalType":"string","name":"","type":"string"}],"stateMutability":"view","type":"function"},{"inputs":[],"name":"totalSupply","outputs":[{"internalType":"uint256","name":"","type":"uint256"}],"stateMutability":"view","type":"function"},{"inputs":[{"internalType":"address","name":"from","type":"address"},{"internalType":"address","name":"to","type":"address"},{"internalType":"uint256","name":"tokenId","type":"uint256"}],"name":"transferFrom","outputs":[],"stateMutability":"payable","type":"function"}],"devdoc":{"kind":"dev","methods":{"approve(address,uint256)":{"params":{"operator":"address to be approved","tokenId":"token to approve"}},"balanceOf(address)":{"returns":{"_0":"quantity of tokens held"}},"getApproved(uint256)":{"params":{"tokenId":"token to query"},"returns":{"_0":"address approved to spend token"}},"isApprovedForAll(address,address)":{"params":{"account":"address to query for approval granted","operator":"address to query for approval received"},"returns":{"_0":"whether operator is approved to spend tokens held by account"}},"ownerOf(uint256)":{"params":{"tokenId":"token to query"},"returns":{"_0":"token owner"}},"safeTransferFrom(address,address,uint256)":{"params":{"from":"sender of token","to":"receiver of token","tokenId":"token id"}},"safeTransferFrom(address,address,uint256,bytes)":{"params":{"data":"data payload","from":"sender of token","to":"receiver of token","tokenId":"token id"}},"setApprovalForAll(address,bool)":{"params":{"operator":"address to be approved","status":"approval status"}},"supportsInterface(bytes4)":{"params":{"interfaceId":"interface id"},"returns":{"_0":"bool whether interface is supported"}},"tokenByIndex(uint256)":{"params":{"index":"position in global token list to query"},"returns":{"_0":"id of retrieved token"}},"tokenOfOwnerByIndex(address,uint256)":{"params":{"index":"position in owner's token list to query","owner":"token holder to query"},"returns":{"_0":"id of retrieved token"}},"totalSupply()":{"returns":{"_0":"total supply"}},"transferFrom(address,address,uint256)":{"params":{"from":"sender of token","to":"receiver of token","tokenId":"token id"}}},"version":1},"evm":{"bytecode":{"linkReferences":{},"object":"608060405234801561001057600080fd5b506118a2806100206000396000f3fe6080604052600436106100fe5760003560e01c80634f6ccce711610095578063a22cb46511610064578063a22cb46514610285578063b88d4fde146102a5578063c2229fea146102b8578063c87b56dd146102cd578063e985e9c5146102ed57600080fd5b80634f6ccce7146102105780636352211e1461023057806370a082311461025057806395d89b411461027057600080fd5b806318160ddd116100d157806318160ddd146101a757806323b872dd146101ca5780632f745c59146101dd57806342842e0e146101fd57600080fd5b806301ffc9a71461010357806306fdde0314610138578063081812fc1461015a578063095ea7b314610192575b600080fd5b34801561010f57600080fd5b5061012361011e366004611437565b61030d565b60405190151581526020015b60405180910390f35b34801561014457600080fd5b5061014d610350565b60405161012f91906114a4565b34801561016657600080fd5b5061017a6101753660046114b7565b61035f565b6040516001600160a01b03909116815260200161012f565b6101a56101a03660046114ec565b61036a565b005b3480156101b357600080fd5b506101bc610378565b60405190815260200161012f565b6101a56101d8366004611516565b610382565b3480156101e957600080fd5b506101bc6101f83660046114ec565b610392565b6101a561020b366004611516565b6103a5565b34801561021c57600080fd5b506101bc61022b3660046114b7565b6103b0565b34801561023c57600080fd5b5061017a61024b3660046114b7565b6103bb565b34801561025c57600080fd5b506101bc61026b366004611552565b6103c6565b34801561027c57600080fd5b5061014d6103d1565b34801561029157600080fd5b506101a56102a036600461156d565b6103db565b6101a56102b33660046115bf565b6103e5565b3480156102c457600080fd5b506101a56103f7565b3480156102d957600080fd5b5061014d6102e83660046114b7565b610439565b3480156102f957600080fd5b5061012361030836600461169b565b610444565b6001600160e01b0319811660009081527ffc606c433378e3a7e0a6a531deac289b66caa1b4aa8554fd4ab2c6f1570f92d8602052604081205460ff165b92915050565b606061035a610450565b905090565b600061034a82610501565b6103748282610564565b5050565b600061035a610667565b61038d838383610680565b505050565b600061039e83836106be565b9392505050565b61038d8383836106ed565b600061034a82610708565b600061034a82610729565b600061034a8261076d565b606061035a6107c4565b61037482826107f5565b6103f1848484846108a9565b50505050565b7fadf495216b7be092d4d941efc0aab5b86b90569ad4e5e8dcee191189770143488054600182600061042983856116ce565b90915550610374905033826108e8565b606061034a826109cb565b600061039e8383610a4c565b60607f99574a7094154bb123ae6ae102096f0bf9679b85a5cd1e727aaa0ae5f132e6b1805461047e906116ef565b80601f01602080910402602001604051908101604052809291908181526020018280546104aa906116ef565b80156104f75780601f106104cc576101008083540402835291602001916104f7565b820191906000526020600020905b8154815290600101906020018083116104da57829003601f168201915b5050505050905090565b600061050c82610a99565b6105295760405163c1b843ef60e01b815260040160405180910390fd5b5060009081527f3c7bf052874fa81625121783266a03507bd2cd48b16e571c01a04e8dd3fb07a960205260409020546001600160a01b031690565b61056f828234610ab3565b600061057a82610729565b9050806001600160a01b0316836001600160a01b0316036105ae5760405163424a22cb60e01b815260040160405180910390fd5b336001600160a01b038216148015906105ce57506105cc8133610a4c565b155b156105ec57604051632f5de44f60e01b815260040160405180910390fd5b60008281527f3c7bf052874fa81625121783266a03507bd2cd48b16e571c01a04e8dd3fb07a9602052604080822080546001600160a01b0319166001600160a01b0387811691821790925591518593918516917f8c5be1e5ebec7d5bd14f71427d1e84f3dd0314c0f7b2291e5b200ac8c7c3b92591a4505050565b600061035a60008051602061184d833981519152610ad2565b61068c83838334610adc565b6106963382610b00565b6106b357604051632f5de44f60e01b815260040160405180910390fd5b61038d838383610b86565b6001600160a01b038216600090815260008051602061182d8339815191526020526040812061039e9083610d03565b61038d838383604051806020016040528060008152506108a9565b600061072260008051602061184d83398151915283610d0f565b5092915050565b60008061074460008051602061184d83398151915284610d2b565b90506001600160a01b03811661034a57604051637e1a7d8b60e01b815260040160405180910390fd5b60006001600160a01b03821661079657604051630810ff9760e41b815260040160405180910390fd5b6001600160a01b038216600090815260008051602061182d8339815191526020526040902061034a90610ad2565b60607f99574a7094154bb123ae6ae102096f0bf9679b85a5cd1e727aaa0ae5f132e6b1600101805461047e906116ef565b336001600160a01b0383160361081e5760405163424a22cb60e01b815260040160405180910390fd5b3360008181527f3c7bf052874fa81625121783266a03507bd2cd48b16e571c01a04e8dd3fb07aa602090815260408083206001600160a01b03871680855290835292819020805460ff191686151590811790915590519081529192917f17307eab39ab6107e8899845ad3d59bd9653f200f220920489ca2b5937696c31910160405180910390a35050565b6108b584848434610adc565b6108bf3383610b00565b6108dc57604051632f5de44f60e01b815260040160405180910390fd5b6103f184848484610d37565b6001600160a01b03821661090f576040516311f2988d60e11b815260040160405180910390fd5b61091881610a99565b1561093657604051630d86bb7b60e31b815260040160405180910390fd5b61094260008383610d6b565b6001600160a01b038216600090815260008051602061182d8339815191526020526040902060008051602061184d833981519152906109819083610d76565b5061098d818385610d82565b5060405182906001600160a01b038516906000907fddf252ad1be2c89b69c2b068fc378daa952ba7f163c4a11628f55a4df523b3ef908290a4505050565b60606109d682610a99565b6109f257604051624705a760e71b815260040160405180910390fd5b60408051808201909152601181527001d2234b0b6b7b7321027232a1034b21d1607d1b602082015280610a2484610d98565b604051602001610a35929190611729565b604051602081830303815290604052915050919050565b6001600160a01b0391821660009081527f3c7bf052874fa81625121783266a03507bd2cd48b16e571c01a04e8dd3fb07aa6020908152604080832093909416825291909152205460ff1690565b600061034a60008051602061184d83398151915283610e2b565b801561038d5760405163b56d7c1b60e01b815260040160405180910390fd5b600061034a825490565b8015610afb576040516322b1813960e01b815260040160405180910390fd5b6103f1565b6000610b0b82610a99565b610b285760405163c1b843ef60e01b815260040160405180910390fd5b6000610b3383610729565b9050806001600160a01b0316846001600160a01b03161480610b6e5750836001600160a01b0316610b6384610501565b6001600160a01b0316145b80610b7e5750610b7e8185610a4c565b949350505050565b6000610b9182610729565b9050836001600160a01b0316816001600160a01b031614610bc557604051630f2db4ad60e01b815260040160405180910390fd5b6001600160a01b038316610bec576040516340311a0960e01b815260040160405180910390fd5b610bf7848484610d6b565b6001600160a01b038416600090815260008051602061182d8339815191526020526040902060008051602061184d83398151915290610c369084610e43565b506001600160a01b03841660009081526002820160205260409020610c5b9084610d76565b50610c67818486610d82565b50600083815260038201602052604080822080546001600160a01b0319169055518491906001600160a01b038516907f8c5be1e5ebec7d5bd14f71427d1e84f3dd0314c0f7b2291e5b200ac8c7c3b925908390a482846001600160a01b0316866001600160a01b03167fddf252ad1be2c89b69c2b068fc378daa952ba7f163c4a11628f55a4df523b3ef60405160405180910390a45050505050565b600061039e8383610e4f565b6000808080610d1e8686610e9b565b9097909650945050505050565b600061039e8383610efe565b610d42848484610b86565b610d4e84848484610f62565b6103f157604051639ff10cdd60e01b815260040160405180910390fd5b61038d838383611033565b600061039e838361103e565b6000610b7e84846001600160a01b038516611081565b60606000610da583611120565b600101905060008167ffffffffffffffff811115610dc557610dc56115a9565b6040519080825280601f01601f191660200182016040528015610def576020820181803683370190505b5090508181016020015b600019016f181899199a1a9b1b9c1cb0b131b232b360811b600a86061a8153600a8504945084610df957509392505050565b6000818152600183016020526040812054151561039e565b600061039e83836111f8565b81546000908210610e735760405163e637bf3b60e01b815260040160405180910390fd5b826000018281548110610e8857610e88611758565b9060005260206000200154905092915050565b815460009081908310610ec15760405163022fd82760e31b815260040160405180910390fd5b6000846000018481548110610ed857610ed8611758565b906000526020600020906002020190508060000154816001015492509250509250929050565b6000818152600183016020526040812054808203610f2f57604051633d547ec560e21b815260040160405180910390fd5b836000016001820381548110610f4757610f47611758565b90600052602060002090600202016001015491505092915050565b60006001600160a01b0384163b610f7b57506001610b7e565b6000610ffc63150b7a0260e01b33888787604051602401610f9f949392919061176e565b604051602081830303815290604052906001600160e01b0319166020820180516001600160e01b0383818316178352505050506040518060600160405280603281526020016117fb603291396001600160a01b03881691906112b2565b905060008180602001905181019061101491906117ab565b6001600160e01b031916630a85bd0160e11b1492505050949350505050565b61038d8383836112c1565b600081815260018301602052604081205461034a575081546001808201845560008481526020808220909301849055845493815293810190915260409092205590565b60008281526001840160205260408120548082036110e857505060408051808201825283815260208082018481528654600181810189556000898152848120955160029093029095019182559151908201558654868452818801909252929091205561039e565b8285600001600183038154811061110157611101611758565b906000526020600020906002020160010181905550600091505061039e565b60008072184f03e93ff9f4daa797ed6e38ed64bf6a1f0160401b831061115f5772184f03e93ff9f4daa797ed6e38ed64bf6a1f0160401b830492506040015b6d04ee2d6d415b85acef8100000000831061118b576d04ee2d6d415b85acef8100000000830492506020015b662386f26fc1000083106111a957662386f26fc10000830492506010015b6305f5e10083106111c1576305f5e100830492506008015b61271083106111d557612710830492506004015b606483106111e7576064830492506002015b600a831061034a5760010192915050565b600081815260018301602052604081205480156107225783546000908590600019810190811061122a5761122a611758565b906000526020600020015490508085600001600184038154811061125057611250611758565b6000918252602080832090910192909255918252600186019052604090208190558354849080611282576112826117c8565b60008281526020808220830160001990810183905590920190925593815260019485019093525050604081205590565b6060610b7e8484600085611305565b6001600160a01b03821661038d5760008181527f99574a7094154bb123ae6ae102096f0bf9679b85a5cd1e727aaa0ae5f132e6b46020526040812061038d916113cb565b6060843b61132657604051632270d6bf60e21b815260040160405180910390fd5b600080866001600160a01b0316858760405161134291906117de565b60006040518083038185875af1925050503d806000811461137f576040519150601f19603f3d011682016040523d82523d6000602084013e611384565b606091505b50915091508115611398579150610b7e9050565b8051156113a85780518082602001fd5b8360405162461bcd60e51b81526004016113c291906114a4565b60405180910390fd5b5080546113d7906116ef565b6000825580601f106113e7575050565b601f0160209004906000526020600020908101906114059190611408565b50565b5b8082111561141d5760008155600101611409565b5090565b6001600160e01b03198116811461140557600080fd5b60006020828403121561144957600080fd5b813561039e81611421565b60005b8381101561146f578181015183820152602001611457565b50506000910152565b60008151808452611490816020860160208601611454565b601f01601f19169290920160200192915050565b60208152600061039e6020830184611478565b6000602082840312156114c957600080fd5b5035919050565b80356001600160a01b03811681146114e757600080fd5b919050565b600080604083850312156114ff57600080fd5b611508836114d0565b946020939093013593505050565b60008060006060848603121561152b57600080fd5b611534846114d0565b9250611542602085016114d0565b9150604084013590509250925092565b60006020828403121561156457600080fd5b61039e826114d0565b6000806040838503121561158057600080fd5b611589836114d0565b91506020830135801515811461159e57600080fd5b809150509250929050565b634e487b7160e01b600052604160045260246000fd5b600080600080608085870312156115d557600080fd5b6115de856114d0565b93506115ec602086016114d0565b925060408501359150606085013567ffffffffffffffff8082111561161057600080fd5b818701915087601f83011261162457600080fd5b813581811115611636576116366115a9565b604051601f8201601f19908116603f0116810190838211818310171561165e5761165e6115a9565b816040528281528a602084870101111561167757600080fd5b82602086016020830137600060208483010152809550505050505092959194509250565b600080604083850312156116ae57600080fd5b6116b7836114d0565b91506116c5602084016114d0565b90509250929050565b8082018082111561034a57634e487b7160e01b600052601160045260246000fd5b600181811c9082168061170357607f821691505b60208210810361172357634e487b7160e01b600052602260045260246000fd5b50919050565b6000835161173b818460208801611454565b83519083019061174f818360208801611454565b01949350505050565b634e487b7160e01b600052603260045260246000fd5b6001600160a01b03858116825284166020820152604081018390526080606082018190526000906117a190830184611478565b9695505050505050565b6000602082840312156117bd57600080fd5b815161039e81611421565b634e487b7160e01b600052603160045260246000fd5b600082516117f0818460208701611454565b919091019291505056fe4552433732313a207472616e7366657220746f206e6f6e20455243373231526563656976657220696d706c656d656e7465723c7bf052874fa81625121783266a03507bd2cd48b16e571c01a04e8dd3fb07a83c7bf052874fa81625121783266a03507bd2cd48b16e571c01a04e8dd3fb07a6a264697066735822122040bf4334a0381ef38ac079ac6f9336ecd6be8b7b1c9a9e93ce16a2300896ed9764736f6c63430008110033","opcodes":"PUSH1 0x80 PUSH1 0x40 MSTORE CALLVALUE DUP1 ISZERO PUSH2 0x10 JUMPI PUSH1 0x0 DUP1 REVERT JUMPDEST POP PUSH2 0x18A2 DUP1 PUSH2 0x20 PUSH1 0x0 CODECOPY PUSH1 0x0 RETURN INVALID PUSH1 0x80 PUSH1 0x40 MSTORE PUSH1 0x4 CALLDATASIZE LT PUSH2 0xFE JUMPI PUSH1 0x0 CALLDATALOAD PUSH1 0xE0 SHR DUP1 PUSH4 0x4F6CCCE7 GT PUSH2 0x95 JUMPI DUP1 PUSH4 0xA22CB465 GT PUSH2 0x64 JUMPI DUP1 PUSH4 0xA22CB465 EQ PUSH2 0x285 JUMPI DUP1 PUSH4 0xB88D4FDE EQ PUSH2 0x2A5 JUMPI DUP1 PUSH4 0xC2229FEA EQ PUSH2 0x2B8 JUMPI DUP1 PUSH4 0xC87B56DD EQ PUSH2 0x2CD JUMPI DUP1 PUSH4 0xE985E9C5 EQ PUSH2 0x2ED JUMPI PUSH1 0x0 DUP1 REVERT JUMPDEST DUP1 PUSH4 0x4F6CCCE7 EQ PUSH2 0x210 JUMPI DUP1 PUSH4 0x6352211E EQ PUSH2 0x230 JUMPI DUP1 PUSH4 0x70A08231 EQ PUSH2 0x250 JUMPI DUP1 PUSH4 0x95D89B41 EQ PUSH2 0x270 JUMPI PUSH1 0x0 DUP1 REVERT JUMPDEST DUP1 PUSH4 0x18160DDD GT PUSH2 0xD1 JUMPI DUP1 PUSH4 0x18160DDD EQ PUSH2 0x1A7 JUMPI DUP1 PUSH4 0x23B872DD EQ PUSH2 0x1CA JUMPI DUP1 PUSH4 0x2F745C59 EQ PUSH2 0x1DD JUMPI DUP1 PUSH4 0x42842E0E EQ PUSH2 0x1FD JUMPI PUSH1 0x0 DUP1 REVERT JUMPDEST DUP1 PUSH4 0x1FFC9A7 EQ PUSH2 0x103 JUMPI DUP1 PUSH4 0x6FDDE03 EQ PUSH2 0x138 JUMPI DUP1 PUSH4 0x81812FC EQ PUSH2 0x15A JUMPI DUP1 PUSH4 0x95EA7B3 EQ PUSH2 0x192 JUMPI JUMPDEST PUSH1 0x0 DUP1 REVERT JUMPDEST CALLVALUE DUP1 ISZERO PUSH2 0x10F JUMPI PUSH1 0x0 DUP1 REVERT JUMPDEST POP PUSH2 0x123 PUSH2 0x11E CALLDATASIZE PUSH1 0x4 PUSH2 0x1437 JUMP JUMPDEST PUSH2 0x30D JUMP JUMPDEST PUSH1 0x40 MLOAD SWAP1 ISZERO ISZERO DUP2 MSTORE PUSH1 0x20 ADD JUMPDEST PUSH1 0x40 MLOAD DUP1 SWAP2 SUB SWAP1 RETURN JUMPDEST CALLVALUE DUP1 ISZERO PUSH2 0x144 JUMPI PUSH1 0x0 DUP1 REVERT JUMPDEST POP PUSH2 0x14D PUSH2 0x350 JUMP JUMPDEST PUSH1 0x40 MLOAD PUSH2 0x12F SWAP2 SWAP1 PUSH2 0x14A4 JUMP JUMPDEST CALLVALUE DUP1 ISZERO PUSH2 0x166 JUMPI PUSH1 0x0 DUP1 REVERT JUMPDEST POP PUSH2 0x17A PUSH2 0x175 CALLDATASIZE PUSH1 0x4 PUSH2 0x14B7 JUMP JUMPDEST PUSH2 0x35F JUMP JUMPDEST PUSH1 0x40 MLOAD PUSH1 0x1 PUSH1 0x1 PUSH1 0xA0 SHL SUB SWAP1 SWAP2 AND DUP2 MSTORE PUSH1 0x20 ADD PUSH2 0x12F JUMP JUMPDEST PUSH2 0x1A5 PUSH2 0x1A0 CALLDATASIZE PUSH1 0x4 PUSH2 0x14EC JUMP JUMPDEST PUSH2 0x36A JUMP JUMPDEST STOP JUMPDEST CALLVALUE DUP1 ISZERO PUSH2 0x1B3 JUMPI PUSH1 0x0 DUP1 REVERT JUMPDEST POP PUSH2 0x1BC PUSH2 0x378 JUMP JUMPDEST PUSH1 0x40 MLOAD SWAP1 DUP2 MSTORE PUSH1 0x20 ADD PUSH2 0x12F JUMP JUMPDEST PUSH2 0x1A5 PUSH2 0x1D8 CALLDATASIZE PUSH1 0x4 PUSH2 0x1516 JUMP JUMPDEST PUSH2 0x382 JUMP JUMPDEST CALLVALUE DUP1 ISZERO PUSH2 0x1E9 JUMPI PUSH1 0x0 DUP1 REVERT JUMPDEST POP PUSH2 0x1BC PUSH2 0x1F8 CALLDATASIZE PUSH1 0x4 PUSH2 0x14EC JUMP JUMPDEST PUSH2 0x392 JUMP JUMPDEST PUSH2 0x1A5 PUSH2 0x20B CALLDATASIZE PUSH1 0x4 PUSH2 0x1516 JUMP JUMPDEST PUSH2 0x3A5 JUMP JUMPDEST CALLVALUE DUP1 ISZERO PUSH2 0x21C JUMPI PUSH1 0x0 DUP1 REVERT JUMPDEST POP PUSH2 0x1BC PUSH2 0x22B CALLDATASIZE PUSH1 0x4 PUSH2 0x14B7 JUMP JUMPDEST PUSH2 0x3B0 JUMP JUMPDEST CALLVALUE DUP1 ISZERO PUSH2 0x23C JUMPI PUSH1 0x0 DUP1 REVERT JUMPDEST POP PUSH2 0x17A PUSH2 0x24B CALLDATASIZE PUSH1 0x4 PUSH2 0x14B7 JUMP JUMPDEST PUSH2 0x3BB JUMP JUMPDEST CALLVALUE DUP1 ISZERO PUSH2 0x25C JUMPI PUSH1 0x0 DUP1 REVERT JUMPDEST POP PUSH2 0x1BC PUSH2 0x26B CALLDATASIZE PUSH1 0x4 PUSH2 0x1552 JUMP JUMPDEST PUSH2 0x3C6 JUMP JUMPDEST CALLVALUE DUP1 ISZERO PUSH2 0x27C JUMPI PUSH1 0x0 DUP1 REVERT JUMPDEST POP PUSH2 0x14D PUSH2 0x3D1 JUMP JUMPDEST CALLVALUE DUP1 ISZERO PUSH2 0x291 JUMPI PUSH1 0x0 DUP1 REVERT JUMPDEST POP PUSH2 0x1A5 PUSH2 0x2A0 CALLDATASIZE PUSH1 0x4 PUSH2 0x156D JUMP JUMPDEST PUSH2 0x3DB JUMP JUMPDEST PUSH2 0x1A5 PUSH2 0x2B3 CALLDATASIZE PUSH1 0x4 PUSH2 0x15BF JUMP JUMPDEST PUSH2 0x3E5 JUMP JUMPDEST CALLVALUE DUP1 ISZERO PUSH2 0x2C4 JUMPI PUSH1 0x0 DUP1 REVERT JUMPDEST POP PUSH2 0x1A5 PUSH2 0x3F7 JUMP JUMPDEST CALLVALUE DUP1 ISZERO PUSH2 0x2D9 JUMPI PUSH1 0x0 DUP1 REVERT JUMPDEST POP PUSH2 0x14D PUSH2 0x2E8 CALLDATASIZE PUSH1 0x4 PUSH2 0x14B7 JUMP JUMPDEST PUSH2 0x439 JUMP JUMPDEST CALLVALUE DUP1 ISZERO PUSH2 0x2F9 JUMPI PUSH1 0x0 DUP1 REVERT JUMPDEST POP PUSH2 0x123 PUSH2 0x308 CALLDATASIZE PUSH1 0x4 PUSH2 0x169B JUMP JUMPDEST PUSH2 0x444 JUMP JUMPDEST PUSH1 0x1 PUSH1 0x1 PUSH1 0xE0 SHL SUB NOT DUP2 AND PUSH1 0x0 SWAP1 DUP2 MSTORE PUSH32 0xFC606C433378E3A7E0A6A531DEAC289B66CAA1B4AA8554FD4AB2C6F1570F92D8 PUSH1 0x20 MSTORE PUSH1 0x40 DUP2 KECCAK256 SLOAD PUSH1 0xFF AND JUMPDEST SWAP3 SWAP2 POP POP JUMP JUMPDEST PUSH1 0x60 PUSH2 0x35A PUSH2 0x450 JUMP JUMPDEST SWAP1 POP SWAP1 JUMP JUMPDEST PUSH1 0x0 PUSH2 0x34A DUP3 PUSH2 0x501 JUMP JUMPDEST PUSH2 0x374 DUP3 DUP3 PUSH2 0x564 JUMP JUMPDEST POP POP JUMP JUMPDEST PUSH1 0x0 PUSH2 0x35A PUSH2 0x667 JUMP JUMPDEST PUSH2 0x38D DUP4 DUP4 DUP4 PUSH2 0x680 JUMP JUMPDEST POP POP POP JUMP JUMPDEST PUSH1 0x0 PUSH2 0x39E DUP4 DUP4 PUSH2 0x6BE JUMP JUMPDEST SWAP4 SWAP3 POP POP POP JUMP JUMPDEST PUSH2 0x38D DUP4 DUP4 DUP4 PUSH2 0x6ED JUMP JUMPDEST PUSH1 0x0 PUSH2 0x34A DUP3 PUSH2 0x708 JUMP JUMPDEST PUSH1 0x0 PUSH2 0x34A DUP3 PUSH2 0x729 JUMP JUMPDEST PUSH1 0x0 PUSH2 0x34A DUP3 PUSH2 0x76D JUMP JUMPDEST PUSH1 0x60 PUSH2 0x35A PUSH2 0x7C4 JUMP JUMPDEST PUSH2 0x374 DUP3 DUP3 PUSH2 0x7F5 JUMP JUMPDEST PUSH2 0x3F1 DUP5 DUP5 DUP5 DUP5 PUSH2 0x8A9 JUMP JUMPDEST POP POP POP POP JUMP JUMPDEST PUSH32 0xADF495216B7BE092D4D941EFC0AAB5B86B90569AD4E5E8DCEE19118977014348 DUP1 SLOAD PUSH1 0x1 DUP3 PUSH1 0x0 PUSH2 0x429 DUP4 DUP6 PUSH2 0x16CE JUMP JUMPDEST SWAP1 SWAP2 SSTORE POP PUSH2 0x374 SWAP1 POP CALLER DUP3 PUSH2 0x8E8 JUMP JUMPDEST PUSH1 0x60 PUSH2 0x34A DUP3 PUSH2 0x9CB JUMP JUMPDEST PUSH1 0x0 PUSH2 0x39E DUP4 DUP4 PUSH2 0xA4C JUMP JUMPDEST PUSH1 0x60 PUSH32 0x99574A7094154BB123AE6AE102096F0BF9679B85A5CD1E727AAA0AE5F132E6B1 DUP1 SLOAD PUSH2 0x47E SWAP1 PUSH2 0x16EF JUMP JUMPDEST DUP1 PUSH1 0x1F ADD PUSH1 0x20 DUP1 SWAP2 DIV MUL PUSH1 0x20 ADD PUSH1 0x40 MLOAD SWAP1 DUP2 ADD PUSH1 0x40 MSTORE DUP1 SWAP3 SWAP2 SWAP1 DUP2 DUP2 MSTORE PUSH1 0x20 ADD DUP3 DUP1 SLOAD PUSH2 0x4AA SWAP1 PUSH2 0x16EF JUMP JUMPDEST DUP1 ISZERO PUSH2 0x4F7 JUMPI DUP1 PUSH1 0x1F LT PUSH2 0x4CC JUMPI PUSH2 0x100 DUP1 DUP4 SLOAD DIV MUL DUP4 MSTORE SWAP2 PUSH1 0x20 ADD SWAP2 PUSH2 0x4F7 JUMP JUMPDEST DUP3 ADD SWAP2 SWAP1 PUSH1 0x0 MSTORE PUSH1 0x20 PUSH1 0x0 KECCAK256 SWAP1 JUMPDEST DUP2 SLOAD DUP2 MSTORE SWAP1 PUSH1 0x1 ADD SWAP1 PUSH1 0x20 ADD DUP1 DUP4 GT PUSH2 0x4DA JUMPI DUP3 SWAP1 SUB PUSH1 0x1F AND DUP3 ADD SWAP2 JUMPDEST POP POP POP POP POP SWAP1 POP SWAP1 JUMP JUMPDEST PUSH1 0x0 PUSH2 0x50C DUP3 PUSH2 0xA99 JUMP JUMPDEST PUSH2 0x529 JUMPI PUSH1 0x40 MLOAD PUSH4 0xC1B843EF PUSH1 0xE0 SHL DUP2 MSTORE PUSH1 0x4 ADD PUSH1 0x40 MLOAD DUP1 SWAP2 SUB SWAP1 REVERT JUMPDEST POP PUSH1 0x0 SWAP1 DUP2 MSTORE PUSH32 0x3C7BF052874FA81625121783266A03507BD2CD48B16E571C01A04E8DD3FB07A9 PUSH1 0x20 MSTORE PUSH1 0x40 SWAP1 KECCAK256 SLOAD PUSH1 0x1 PUSH1 0x1 PUSH1 0xA0 SHL SUB AND SWAP1 JUMP JUMPDEST PUSH2 0x56F DUP3 DUP3 CALLVALUE PUSH2 0xAB3 JUMP JUMPDEST PUSH1 0x0 PUSH2 0x57A DUP3 PUSH2 0x729 JUMP JUMPDEST SWAP1 POP DUP1 PUSH1 0x1 PUSH1 0x1 PUSH1 0xA0 SHL SUB AND DUP4 PUSH1 0x1 PUSH1 0x1 PUSH1 0xA0 SHL SUB AND SUB PUSH2 0x5AE JUMPI PUSH1 0x40 MLOAD PUSH4 0x424A22CB PUSH1 0xE0 SHL DUP2 MSTORE PUSH1 0x4 ADD PUSH1 0x40 MLOAD DUP1 SWAP2 SUB SWAP1 REVERT JUMPDEST CALLER PUSH1 0x1 PUSH1 0x1 PUSH1 0xA0 SHL SUB DUP3 AND EQ DUP1 ISZERO SWAP1 PUSH2 0x5CE JUMPI POP PUSH2 0x5CC DUP2 CALLER PUSH2 0xA4C JUMP JUMPDEST ISZERO JUMPDEST ISZERO PUSH2 0x5EC JUMPI PUSH1 0x40 MLOAD PUSH4 0x2F5DE44F PUSH1 0xE0 SHL DUP2 MSTORE PUSH1 0x4 ADD PUSH1 0x40 MLOAD DUP1 SWAP2 SUB SWAP1 REVERT JUMPDEST PUSH1 0x0 DUP3 DUP2 MSTORE PUSH32 0x3C7BF052874FA81625121783266A03507BD2CD48B16E571C01A04E8DD3FB07A9 PUSH1 0x20 MSTORE PUSH1 0x40 DUP1 DUP3 KECCAK256 DUP1 SLOAD PUSH1 0x1 PUSH1 0x1 PUSH1 0xA0 SHL SUB NOT AND PUSH1 0x1 PUSH1 0x1 PUSH1 0xA0 SHL SUB DUP8 DUP2 AND SWAP2 DUP3 OR SWAP1 SWAP3 SSTORE SWAP2 MLOAD DUP6 SWAP4 SWAP2 DUP6 AND SWAP2 PUSH32 0x8C5BE1E5EBEC7D5BD14F71427D1E84F3DD0314C0F7B2291E5B200AC8C7C3B925 SWAP2 LOG4 POP POP POP JUMP JUMPDEST PUSH1 0x0 PUSH2 0x35A PUSH1 0x0 DUP1 MLOAD PUSH1 0x20 PUSH2 0x184D DUP4 CODECOPY DUP2 MLOAD SWAP2 MSTORE PUSH2 0xAD2 JUMP JUMPDEST PUSH2 0x68C DUP4 DUP4 DUP4 CALLVALUE PUSH2 0xADC JUMP JUMPDEST PUSH2 0x696 CALLER DUP3 PUSH2 0xB00 JUMP JUMPDEST PUSH2 0x6B3 JUMPI PUSH1 0x40 MLOAD PUSH4 0x2F5DE44F PUSH1 0xE0 SHL DUP2 MSTORE PUSH1 0x4 ADD PUSH1 0x40 MLOAD DUP1 SWAP2 SUB SWAP1 REVERT JUMPDEST PUSH2 0x38D DUP4 DUP4 DUP4 PUSH2 0xB86 JUMP JUMPDEST PUSH1 0x1 PUSH1 0x1 PUSH1 0xA0 SHL SUB DUP3 AND PUSH1 0x0 SWAP1 DUP2 MSTORE PUSH1 0x0 DUP1 MLOAD PUSH1 0x20 PUSH2 0x182D DUP4 CODECOPY DUP2 MLOAD SWAP2 MSTORE PUSH1 0x20 MSTORE PUSH1 0x40 DUP2 KECCAK256 PUSH2 0x39E SWAP1 DUP4 PUSH2 0xD03 JUMP JUMPDEST PUSH2 0x38D DUP4 DUP4 DUP4 PUSH1 0x40 MLOAD DUP1 PUSH1 0x20 ADD PUSH1 0x40 MSTORE DUP1 PUSH1 0x0 DUP2 MSTORE POP PUSH2 0x8A9 JUMP JUMPDEST PUSH1 0x0 PUSH2 0x722 PUSH1 0x0 DUP1 MLOAD PUSH1 0x20 PUSH2 0x184D DUP4 CODECOPY DUP2 MLOAD SWAP2 MSTORE DUP4 PUSH2 0xD0F JUMP JUMPDEST POP SWAP3 SWAP2 POP POP JUMP JUMPDEST PUSH1 0x0 DUP1 PUSH2 0x744 PUSH1 0x0 DUP1 MLOAD PUSH1 0x20 PUSH2 0x184D DUP4 CODECOPY DUP2 MLOAD SWAP2 MSTORE DUP5 PUSH2 0xD2B JUMP JUMPDEST SWAP1 POP PUSH1 0x1 PUSH1 0x1 PUSH1 0xA0 SHL SUB DUP2 AND PUSH2 0x34A JUMPI PUSH1 0x40 MLOAD PUSH4 0x7E1A7D8B PUSH1 0xE0 SHL DUP2 MSTORE PUSH1 0x4 ADD PUSH1 0x40 MLOAD DUP1 SWAP2 SUB SWAP1 REVERT JUMPDEST PUSH1 0x0 PUSH1 0x1 PUSH1 0x1 PUSH1 0xA0 SHL SUB DUP3 AND PUSH2 0x796 JUMPI PUSH1 0x40 MLOAD PUSH4 0x810FF97 PUSH1 0xE4 SHL DUP2 MSTORE PUSH1 0x4 ADD PUSH1 0x40 MLOAD DUP1 SWAP2 SUB SWAP1 REVERT JUMPDEST PUSH1 0x1 PUSH1 0x1 PUSH1 0xA0 SHL SUB DUP3 AND PUSH1 0x0 SWAP1 DUP2 MSTORE PUSH1 0x0 DUP1 MLOAD PUSH1 0x20 PUSH2 0x182D DUP4 CODECOPY DUP2 MLOAD SWAP2 MSTORE PUSH1 0x20 MSTORE PUSH1 0x40 SWAP1 KECCAK256 PUSH2 0x34A SWAP1 PUSH2 0xAD2 JUMP JUMPDEST PUSH1 0x60 PUSH32 0x99574A7094154BB123AE6AE102096F0BF9679B85A5CD1E727AAA0AE5F132E6B1 PUSH1 0x1 ADD DUP1 SLOAD PUSH2 0x47E SWAP1 PUSH2 0x16EF JUMP JUMPDEST CALLER PUSH1 0x1 PUSH1 0x1 PUSH1 0xA0 SHL SUB DUP4 AND SUB PUSH2 0x81E JUMPI PUSH1 0x40 MLOAD PUSH4 0x424A22CB PUSH1 0xE0 SHL DUP2 MSTORE PUSH1 0x4 ADD PUSH1 0x40 MLOAD DUP1 SWAP2 SUB SWAP1 REVERT JUMPDEST CALLER PUSH1 0x0 DUP2 DUP2 MSTORE PUSH32 0x3C7BF052874FA81625121783266A03507BD2CD48B16E571C01A04E8DD3FB07AA PUSH1 0x20 SWAP1 DUP2 MSTORE PUSH1 0x40 DUP1 DUP4 KECCAK256 PUSH1 0x1 PUSH1 0x1 PUSH1 0xA0 SHL SUB DUP8 AND DUP1 DUP6 MSTORE SWAP1 DUP4 MSTORE SWAP3 DUP2 SWAP1 KECCAK256 DUP1 SLOAD PUSH1 0xFF NOT AND DUP7 ISZERO ISZERO SWAP1 DUP2 OR SWAP1 SWAP2 SSTORE SWAP1 MLOAD SWAP1 DUP2 MSTORE SWAP2 SWAP3 SWAP2 PUSH32 0x17307EAB39AB6107E8899845AD3D59BD9653F200F220920489CA2B5937696C31 SWAP2 ADD PUSH1 0x40 MLOAD DUP1 SWAP2 SUB SWAP1 LOG3 POP POP JUMP JUMPDEST PUSH2 0x8B5 DUP5 DUP5 DUP5 CALLVALUE PUSH2 0xADC JUMP JUMPDEST PUSH2 0x8BF CALLER DUP4 PUSH2 0xB00 JUMP JUMPDEST PUSH2 0x8DC JUMPI PUSH1 0x40 MLOAD PUSH4 0x2F5DE44F PUSH1 0xE0 SHL DUP2 MSTORE PUSH1 0x4 ADD PUSH1 0x40 MLOAD DUP1 SWAP2 SUB SWAP1 REVERT JUMPDEST PUSH2 0x3F1 DUP5 DUP5 DUP5 DUP5 PUSH2 0xD37 JUMP JUMPDEST PUSH1 0x1 PUSH1 0x1 PUSH1 0xA0 SHL SUB DUP3 AND PUSH2 0x90F JUMPI PUSH1 0x40 MLOAD PUSH4 0x11F2988D PUSH1 0xE1 SHL DUP2 MSTORE PUSH1 0x4 ADD PUSH1 0x40 MLOAD DUP1 SWAP2 SUB SWAP1 REVERT JUMPDEST PUSH2 0x918 DUP2 PUSH2 0xA99 JUMP JUMPDEST ISZERO PUSH2 0x936 JUMPI PUSH1 0x40 MLOAD PUSH4 0xD86BB7B PUSH1 0xE3 SHL DUP2 MSTORE PUSH1 0x4 ADD PUSH1 0x40 MLOAD DUP1 SWAP2 SUB SWAP1 REVERT JUMPDEST PUSH2 0x942 PUSH1 0x0 DUP4 DUP4 PUSH2 0xD6B JUMP JUMPDEST PUSH1 0x1 PUSH1 0x1 PUSH1 0xA0 SHL SUB DUP3 AND PUSH1 0x0 SWAP1 DUP2 MSTORE PUSH1 0x0 DUP1 MLOAD PUSH1 0x20 PUSH2 0x182D DUP4 CODECOPY DUP2 MLOAD SWAP2 MSTORE PUSH1 0x20 MSTORE PUSH1 0x40 SWAP1 KECCAK256 PUSH1 0x0 DUP1 MLOAD PUSH1 0x20 PUSH2 0x184D DUP4 CODECOPY DUP2 MLOAD SWAP2 MSTORE SWAP1 PUSH2 0x981 SWAP1 DUP4 PUSH2 0xD76 JUMP JUMPDEST POP PUSH2 0x98D DUP2 DUP4 DUP6 PUSH2 0xD82 JUMP JUMPDEST POP PUSH1 0x40 MLOAD DUP3 SWAP1 PUSH1 0x1 PUSH1 0x1 PUSH1 0xA0 SHL SUB DUP6 AND SWAP1 PUSH1 0x0 SWAP1 PUSH32 0xDDF252AD1BE2C89B69C2B068FC378DAA952BA7F163C4A11628F55A4DF523B3EF SWAP1 DUP3 SWAP1 LOG4 POP POP POP JUMP JUMPDEST PUSH1 0x60 PUSH2 0x9D6 DUP3 PUSH2 0xA99 JUMP JUMPDEST PUSH2 0x9F2 JUMPI PUSH1 0x40 MLOAD PUSH3 0x4705A7 PUSH1 0xE7 SHL DUP2 MSTORE PUSH1 0x4 ADD PUSH1 0x40 MLOAD DUP1 SWAP2 SUB SWAP1 REVERT JUMPDEST PUSH1 0x40 DUP1 MLOAD DUP1 DUP3 ADD SWAP1 SWAP2 MSTORE PUSH1 0x11 DUP2 MSTORE PUSH17 0x1D2234B0B6B7B7321027232A1034B21D1 PUSH1 0x7D SHL PUSH1 0x20 DUP3 ADD MSTORE DUP1 PUSH2 0xA24 DUP5 PUSH2 0xD98 JUMP JUMPDEST PUSH1 0x40 MLOAD PUSH1 0x20 ADD PUSH2 0xA35 SWAP3 SWAP2 SWAP1 PUSH2 0x1729 JUMP JUMPDEST PUSH1 0x40 MLOAD PUSH1 0x20 DUP2 DUP4 SUB SUB DUP2 MSTORE SWAP1 PUSH1 0x40 MSTORE SWAP2 POP POP SWAP2 SWAP1 POP JUMP JUMPDEST PUSH1 0x1 PUSH1 0x1 PUSH1 0xA0 SHL SUB SWAP2 DUP3 AND PUSH1 0x0 SWAP1 DUP2 MSTORE PUSH32 0x3C7BF052874FA81625121783266A03507BD2CD48B16E571C01A04E8DD3FB07AA PUSH1 0x20 SWAP1 DUP2 MSTORE PUSH1 0x40 DUP1 DUP4 KECCAK256 SWAP4 SWAP1 SWAP5 AND DUP3 MSTORE SWAP2 SWAP1 SWAP2 MSTORE KECCAK256 SLOAD PUSH1 0xFF AND SWAP1 JUMP JUMPDEST PUSH1 0x0 PUSH2 0x34A PUSH1 0x0 DUP1 MLOAD PUSH1 0x20 PUSH2 0x184D DUP4 CODECOPY DUP2 MLOAD SWAP2 MSTORE DUP4 PUSH2 0xE2B JUMP JUMPDEST DUP1 ISZERO PUSH2 0x38D JUMPI PUSH1 0x40 MLOAD PUSH4 0xB56D7C1B PUSH1 0xE0 SHL DUP2 MSTORE PUSH1 0x4 ADD PUSH1 0x40 MLOAD DUP1 SWAP2 SUB SWAP1 REVERT JUMPDEST PUSH1 0x0 PUSH2 0x34A DUP3 SLOAD SWAP1 JUMP JUMPDEST DUP1 ISZERO PUSH2 0xAFB JUMPI PUSH1 0x40 MLOAD PUSH4 0x22B18139 PUSH1 0xE0 SHL DUP2 MSTORE PUSH1 0x4 ADD PUSH1 0x40 MLOAD DUP1 SWAP2 SUB SWAP1 REVERT JUMPDEST PUSH2 0x3F1 JUMP JUMPDEST PUSH1 0x0 PUSH2 0xB0B DUP3 PUSH2 0xA99 JUMP JUMPDEST PUSH2 0xB28 JUMPI PUSH1 0x40 MLOAD PUSH4 0xC1B843EF PUSH1 0xE0 SHL DUP2 MSTORE PUSH1 0x4 ADD PUSH1 0x40 MLOAD DUP1 SWAP2 SUB SWAP1 REVERT JUMPDEST PUSH1 0x0 PUSH2 0xB33 DUP4 PUSH2 0x729 JUMP JUMPDEST SWAP1 POP DUP1 PUSH1 0x1 PUSH1 0x1 PUSH1 0xA0 SHL SUB AND DUP5 PUSH1 0x1 PUSH1 0x1 PUSH1 0xA0 SHL SUB AND EQ DUP1 PUSH2 0xB6E JUMPI POP DUP4 PUSH1 0x1 PUSH1 0x1 PUSH1 0xA0 SHL SUB AND PUSH2 0xB63 DUP5 PUSH2 0x501 JUMP JUMPDEST PUSH1 0x1 PUSH1 0x1 PUSH1 0xA0 SHL SUB AND EQ JUMPDEST DUP1 PUSH2 0xB7E JUMPI POP PUSH2 0xB7E DUP2 DUP6 PUSH2 0xA4C JUMP JUMPDEST SWAP5 SWAP4 POP POP POP POP JUMP JUMPDEST PUSH1 0x0 PUSH2 0xB91 DUP3 PUSH2 0x729 JUMP JUMPDEST SWAP1 POP DUP4 PUSH1 0x1 PUSH1 0x1 PUSH1 0xA0 SHL SUB AND DUP2 PUSH1 0x1 PUSH1 0x1 PUSH1 0xA0 SHL SUB AND EQ PUSH2 0xBC5 JUMPI PUSH1 0x40 MLOAD PUSH4 0xF2DB4AD PUSH1 0xE0 SHL DUP2 MSTORE PUSH1 0x4 ADD PUSH1 0x40 MLOAD DUP1 SWAP2 SUB SWAP1 REVERT JUMPDEST PUSH1 0x1 PUSH1 0x1 PUSH1 0xA0 SHL SUB DUP4 AND PUSH2 0xBEC JUMPI PUSH1 0x40 MLOAD PUSH4 0x40311A09 PUSH1 0xE0 SHL DUP2 MSTORE PUSH1 0x4 ADD PUSH1 0x40 MLOAD DUP1 SWAP2 SUB SWAP1 REVERT JUMPDEST PUSH2 0xBF7 DUP5 DUP5 DUP5 PUSH2 0xD6B JUMP JUMPDEST PUSH1 0x1 PUSH1 0x1 PUSH1 0xA0 SHL SUB DUP5 AND PUSH1 0x0 SWAP1 DUP2 MSTORE PUSH1 0x0 DUP1 MLOAD PUSH1 0x20 PUSH2 0x182D DUP4 CODECOPY DUP2 MLOAD SWAP2 MSTORE PUSH1 0x20 MSTORE PUSH1 0x40 SWAP1 KECCAK256 PUSH1 0x0 DUP1 MLOAD PUSH1 0x20 PUSH2 0x184D DUP4 CODECOPY DUP2 MLOAD SWAP2 MSTORE SWAP1 PUSH2 0xC36 SWAP1 DUP5 PUSH2 0xE43 JUMP JUMPDEST POP PUSH1 0x1 PUSH1 0x1 PUSH1 0xA0 SHL SUB DUP5 AND PUSH1 0x0 SWAP1 DUP2 MSTORE PUSH1 0x2 DUP3 ADD PUSH1 0x20 MSTORE PUSH1 0x40 SWAP1 KECCAK256 PUSH2 0xC5B SWAP1 DUP5 PUSH2 0xD76 JUMP JUMPDEST POP PUSH2 0xC67 DUP2 DUP5 DUP7 PUSH2 0xD82 JUMP JUMPDEST POP PUSH1 0x0 DUP4 DUP2 MSTORE PUSH1 0x3 DUP3 ADD PUSH1 0x20 MSTORE PUSH1 0x40 DUP1 DUP3 KECCAK256 DUP1 SLOAD PUSH1 0x1 PUSH1 0x1 PUSH1 0xA0 SHL SUB NOT AND SWAP1 SSTORE MLOAD DUP5 SWAP2 SWAP1 PUSH1 0x1 PUSH1 0x1 PUSH1 0xA0 SHL SUB DUP6 AND SWAP1 PUSH32 0x8C5BE1E5EBEC7D5BD14F71427D1E84F3DD0314C0F7B2291E5B200AC8C7C3B925 SWAP1 DUP4 SWAP1 LOG4 DUP3 DUP5 PUSH1 0x1 PUSH1 0x1 PUSH1 0xA0 SHL SUB AND DUP7 PUSH1 0x1 PUSH1 0x1 PUSH1 0xA0 SHL SUB AND PUSH32 0xDDF252AD1BE2C89B69C2B068FC378DAA952BA7F163C4A11628F55A4DF523B3EF PUSH1 0x40 MLOAD PUSH1 0x40 MLOAD DUP1 SWAP2 SUB SWAP1 LOG4 POP POP POP POP POP JUMP JUMPDEST PUSH1 0x0 PUSH2 0x39E DUP4 DUP4 PUSH2 0xE4F JUMP JUMPDEST PUSH1 0x0 DUP1 DUP1 DUP1 PUSH2 0xD1E DUP7 DUP7 PUSH2 0xE9B JUMP JUMPDEST SWAP1 SWAP8 SWAP1 SWAP7 POP SWAP5 POP POP POP POP POP JUMP JUMPDEST PUSH1 0x0 PUSH2 0x39E DUP4 DUP4 PUSH2 0xEFE JUMP JUMPDEST PUSH2 0xD42 DUP5 DUP5 DUP5 PUSH2 0xB86 JUMP JUMPDEST PUSH2 0xD4E DUP5 DUP5 DUP5 DUP5 PUSH2 0xF62 JUMP JUMPDEST PUSH2 0x3F1 JUMPI PUSH1 0x40 MLOAD PUSH4 0x9FF10CDD PUSH1 0xE0 SHL DUP2 MSTORE PUSH1 0x4 ADD PUSH1 0x40 MLOAD DUP1 SWAP2 SUB SWAP1 REVERT JUMPDEST PUSH2 0x38D DUP4 DUP4 DUP4 PUSH2 0x1033 JUMP JUMPDEST PUSH1 0x0 PUSH2 0x39E DUP4 DUP4 PUSH2 0x103E JUMP JUMPDEST PUSH1 0x0 PUSH2 0xB7E DUP5 DUP5 PUSH1 0x1 PUSH1 0x1 PUSH1 0xA0 SHL SUB DUP6 AND PUSH2 0x1081 JUMP JUMPDEST PUSH1 0x60 PUSH1 0x0 PUSH2 0xDA5 DUP4 PUSH2 0x1120 JUMP JUMPDEST PUSH1 0x1 ADD SWAP1 POP PUSH1 0x0 DUP2 PUSH8 0xFFFFFFFFFFFFFFFF DUP2 GT ISZERO PUSH2 0xDC5 JUMPI PUSH2 0xDC5 PUSH2 0x15A9 JUMP JUMPDEST PUSH1 0x40 MLOAD SWAP1 DUP1 DUP3 MSTORE DUP1 PUSH1 0x1F ADD PUSH1 0x1F NOT AND PUSH1 0x20 ADD DUP3 ADD PUSH1 0x40 MSTORE DUP1 ISZERO PUSH2 0xDEF JUMPI PUSH1 0x20 DUP3 ADD DUP2 DUP1 CALLDATASIZE DUP4 CALLDATACOPY ADD SWAP1 POP JUMPDEST POP SWAP1 POP DUP2 DUP2 ADD PUSH1 0x20 ADD JUMPDEST PUSH1 0x0 NOT ADD PUSH16 0x181899199A1A9B1B9C1CB0B131B232B3 PUSH1 0x81 SHL PUSH1 0xA DUP7 MOD BYTE DUP2 MSTORE8 PUSH1 0xA DUP6 DIV SWAP5 POP DUP5 PUSH2 0xDF9 JUMPI POP SWAP4 SWAP3 POP POP POP JUMP JUMPDEST PUSH1 0x0 DUP2 DUP2 MSTORE PUSH1 0x1 DUP4 ADD PUSH1 0x20 MSTORE PUSH1 0x40 DUP2 KECCAK256 SLOAD ISZERO ISZERO PUSH2 0x39E JUMP JUMPDEST PUSH1 0x0 PUSH2 0x39E DUP4 DUP4 PUSH2 0x11F8 JUMP JUMPDEST DUP2 SLOAD PUSH1 0x0 SWAP1 DUP3 LT PUSH2 0xE73 JUMPI PUSH1 0x40 MLOAD PUSH4 0xE637BF3B PUSH1 0xE0 SHL DUP2 MSTORE PUSH1 0x4 ADD PUSH1 0x40 MLOAD DUP1 SWAP2 SUB SWAP1 REVERT JUMPDEST DUP3 PUSH1 0x0 ADD DUP3 DUP2 SLOAD DUP2 LT PUSH2 0xE88 JUMPI PUSH2 0xE88 PUSH2 0x1758 JUMP JUMPDEST SWAP1 PUSH1 0x0 MSTORE PUSH1 0x20 PUSH1 0x0 KECCAK256 ADD SLOAD SWAP1 POP SWAP3 SWAP2 POP POP JUMP JUMPDEST DUP2 SLOAD PUSH1 0x0 SWAP1 DUP2 SWAP1 DUP4 LT PUSH2 0xEC1 JUMPI PUSH1 0x40 MLOAD PUSH4 0x22FD827 PUSH1 0xE3 SHL DUP2 MSTORE PUSH1 0x4 ADD PUSH1 0x40 MLOAD DUP1 SWAP2 SUB SWAP1 REVERT JUMPDEST PUSH1 0x0 DUP5 PUSH1 0x0 ADD DUP5 DUP2 SLOAD DUP2 LT PUSH2 0xED8 JUMPI PUSH2 0xED8 PUSH2 0x1758 JUMP JUMPDEST SWAP1 PUSH1 0x0 MSTORE PUSH1 0x20 PUSH1 0x0 KECCAK256 SWAP1 PUSH1 0x2 MUL ADD SWAP1 POP DUP1 PUSH1 0x0 ADD SLOAD DUP2 PUSH1 0x1 ADD SLOAD SWAP3 POP SWAP3 POP POP SWAP3 POP SWAP3 SWAP1 POP JUMP JUMPDEST PUSH1 0x0 DUP2 DUP2 MSTORE PUSH1 0x1 DUP4 ADD PUSH1 0x20 MSTORE PUSH1 0x40 DUP2 KECCAK256 SLOAD DUP1 DUP3 SUB PUSH2 0xF2F JUMPI PUSH1 0x40 MLOAD PUSH4 0x3D547EC5 PUSH1 0xE2 SHL DUP2 MSTORE PUSH1 0x4 ADD PUSH1 0x40 MLOAD DUP1 SWAP2 SUB SWAP1 REVERT JUMPDEST DUP4 PUSH1 0x0 ADD PUSH1 0x1 DUP3 SUB DUP2 SLOAD DUP2 LT PUSH2 0xF47 JUMPI PUSH2 0xF47 PUSH2 0x1758 JUMP JUMPDEST SWAP1 PUSH1 0x0 MSTORE PUSH1 0x20 PUSH1 0x0 KECCAK256 SWAP1 PUSH1 0x2 MUL ADD PUSH1 0x1 ADD SLOAD SWAP2 POP POP SWAP3 SWAP2 POP POP JUMP JUMPDEST PUSH1 0x0 PUSH1 0x1 PUSH1 0x1 PUSH1 0xA0 SHL SUB DUP5 AND EXTCODESIZE PUSH2 0xF7B JUMPI POP PUSH1 0x1 PUSH2 0xB7E JUMP JUMPDEST PUSH1 0x0 PUSH2 0xFFC PUSH4 0x150B7A02 PUSH1 0xE0 SHL CALLER DUP9 DUP8 DUP8 PUSH1 0x40 MLOAD PUSH1 0x24 ADD PUSH2 0xF9F SWAP5 SWAP4 SWAP3 SWAP2 SWAP1 PUSH2 0x176E JUMP JUMPDEST PUSH1 0x40 MLOAD PUSH1 0x20 DUP2 DUP4 SUB SUB DUP2 MSTORE SWAP1 PUSH1 0x40 MSTORE SWAP1 PUSH1 0x1 PUSH1 0x1 PUSH1 0xE0 SHL SUB NOT AND PUSH1 0x20 DUP3 ADD DUP1 MLOAD PUSH1 0x1 PUSH1 0x1 PUSH1 0xE0 SHL SUB DUP4 DUP2 DUP4 AND OR DUP4 MSTORE POP POP POP POP PUSH1 0x40 MLOAD DUP1 PUSH1 0x60 ADD PUSH1 0x40 MSTORE DUP1 PUSH1 0x32 DUP2 MSTORE PUSH1 0x20 ADD PUSH2 0x17FB PUSH1 0x32 SWAP2 CODECOPY PUSH1 0x1 PUSH1 0x1 PUSH1 0xA0 SHL SUB DUP9 AND SWAP2 SWAP1 PUSH2 0x12B2 JUMP JUMPDEST SWAP1 POP PUSH1 0x0 DUP2 DUP1 PUSH1 0x20 ADD SWAP1 MLOAD DUP2 ADD SWAP1 PUSH2 0x1014 SWAP2 SWAP1 PUSH2 0x17AB JUMP JUMPDEST PUSH1 0x1 PUSH1 0x1 PUSH1 0xE0 SHL SUB NOT AND PUSH4 0xA85BD01 PUSH1 0xE1 SHL EQ SWAP3 POP POP POP SWAP5 SWAP4 POP POP POP POP JUMP JUMPDEST PUSH2 0x38D DUP4 DUP4 DUP4 PUSH2 0x12C1 JUMP JUMPDEST PUSH1 0x0 DUP2 DUP2 MSTORE PUSH1 0x1 DUP4 ADD PUSH1 0x20 MSTORE PUSH1 0x40 DUP2 KECCAK256 SLOAD PUSH2 0x34A JUMPI POP DUP2 SLOAD PUSH1 0x1 DUP1 DUP3 ADD DUP5 SSTORE PUSH1 0x0 DUP5 DUP2 MSTORE PUSH1 0x20 DUP1 DUP3 KECCAK256 SWAP1 SWAP4 ADD DUP5 SWAP1 SSTORE DUP5 SLOAD SWAP4 DUP2 MSTORE SWAP4 DUP2 ADD SWAP1 SWAP2 MSTORE PUSH1 0x40 SWAP1 SWAP3 KECCAK256 SSTORE SWAP1 JUMP JUMPDEST PUSH1 0x0 DUP3 DUP2 MSTORE PUSH1 0x1 DUP5 ADD PUSH1 0x20 MSTORE PUSH1 0x40 DUP2 KECCAK256 SLOAD DUP1 DUP3 SUB PUSH2 0x10E8 JUMPI POP POP PUSH1 0x40 DUP1 MLOAD DUP1 DUP3 ADD DUP3 MSTORE DUP4 DUP2 MSTORE PUSH1 0x20 DUP1 DUP3 ADD DUP5 DUP2 MSTORE DUP7 SLOAD PUSH1 0x1 DUP2 DUP2 ADD DUP10 SSTORE PUSH1 0x0 DUP10 DUP2 MSTORE DUP5 DUP2 KECCAK256 SWAP6 MLOAD PUSH1 0x2 SWAP1 SWAP4 MUL SWAP1 SWAP6 ADD SWAP2 DUP3 SSTORE SWAP2 MLOAD SWAP1 DUP3 ADD SSTORE DUP7 SLOAD DUP7 DUP5 MSTORE DUP2 DUP9 ADD SWAP1 SWAP3 MSTORE SWAP3 SWAP1 SWAP2 KECCAK256 SSTORE PUSH2 0x39E JUMP JUMPDEST DUP3 DUP6 PUSH1 0x0 ADD PUSH1 0x1 DUP4 SUB DUP2 SLOAD DUP2 LT PUSH2 0x1101 JUMPI PUSH2 0x1101 PUSH2 0x1758 JUMP JUMPDEST SWAP1 PUSH1 0x0 MSTORE PUSH1 0x20 PUSH1 0x0 KECCAK256 SWAP1 PUSH1 0x2 MUL ADD PUSH1 0x1 ADD DUP2 SWAP1 SSTORE POP PUSH1 0x0 SWAP2 POP POP PUSH2 0x39E JUMP JUMPDEST PUSH1 0x0 DUP1 PUSH19 0x184F03E93FF9F4DAA797ED6E38ED64BF6A1F01 PUSH1 0x40 SHL DUP4 LT PUSH2 0x115F JUMPI PUSH19 0x184F03E93FF9F4DAA797ED6E38ED64BF6A1F01 PUSH1 0x40 SHL DUP4 DIV SWAP3 POP PUSH1 0x40 ADD JUMPDEST PUSH14 0x4EE2D6D415B85ACEF8100000000 DUP4 LT PUSH2 0x118B JUMPI PUSH14 0x4EE2D6D415B85ACEF8100000000 DUP4 DIV SWAP3 POP PUSH1 0x20 ADD JUMPDEST PUSH7 0x2386F26FC10000 DUP4 LT PUSH2 0x11A9 JUMPI PUSH7 0x2386F26FC10000 DUP4 DIV SWAP3 POP PUSH1 0x10 ADD JUMPDEST PUSH4 0x5F5E100 DUP4 LT PUSH2 0x11C1 JUMPI PUSH4 0x5F5E100 DUP4 DIV SWAP3 POP PUSH1 0x8 ADD JUMPDEST PUSH2 0x2710 DUP4 LT PUSH2 0x11D5 JUMPI PUSH2 0x2710 DUP4 DIV SWAP3 POP PUSH1 0x4 ADD JUMPDEST PUSH1 0x64 DUP4 LT PUSH2 0x11E7 JUMPI PUSH1 0x64 DUP4 DIV SWAP3 POP PUSH1 0x2 ADD JUMPDEST PUSH1 0xA DUP4 LT PUSH2 0x34A JUMPI PUSH1 0x1 ADD SWAP3 SWAP2 POP POP JUMP JUMPDEST PUSH1 0x0 DUP2 DUP2 MSTORE PUSH1 0x1 DUP4 ADD PUSH1 0x20 MSTORE PUSH1 0x40 DUP2 KECCAK256 SLOAD DUP1 ISZERO PUSH2 0x722 JUMPI DUP4 SLOAD PUSH1 0x0 SWAP1 DUP6 SWAP1 PUSH1 0x0 NOT DUP2 ADD SWAP1 DUP2 LT PUSH2 0x122A JUMPI PUSH2 0x122A PUSH2 0x1758 JUMP JUMPDEST SWAP1 PUSH1 0x0 MSTORE PUSH1 0x20 PUSH1 0x0 KECCAK256 ADD SLOAD SWAP1 POP DUP1 DUP6 PUSH1 0x0 ADD PUSH1 0x1 DUP5 SUB DUP2 SLOAD DUP2 LT PUSH2 0x1250 JUMPI PUSH2 0x1250 PUSH2 0x1758 JUMP JUMPDEST PUSH1 0x0 SWAP2 DUP3 MSTORE PUSH1 0x20 DUP1 DUP4 KECCAK256 SWAP1 SWAP2 ADD SWAP3 SWAP1 SWAP3 SSTORE SWAP2 DUP3 MSTORE PUSH1 0x1 DUP7 ADD SWAP1 MSTORE PUSH1 0x40 SWAP1 KECCAK256 DUP2 SWAP1 SSTORE DUP4 SLOAD DUP5 SWAP1 DUP1 PUSH2 0x1282 JUMPI PUSH2 0x1282 PUSH2 0x17C8 JUMP JUMPDEST PUSH1 0x0 DUP3 DUP2 MSTORE PUSH1 0x20 DUP1 DUP3 KECCAK256 DUP4 ADD PUSH1 0x0 NOT SWAP1 DUP2 ADD DUP4 SWAP1 SSTORE SWAP1 SWAP3 ADD SWAP1 SWAP3 SSTORE SWAP4 DUP2 MSTORE PUSH1 0x1 SWAP5 DUP6 ADD SWAP1 SWAP4 MSTORE POP POP PUSH1 0x40 DUP2 KECCAK256 SSTORE SWAP1 JUMP JUMPDEST PUSH1 0x60 PUSH2 0xB7E DUP5 DUP5 PUSH1 0x0 DUP6 PUSH2 0x1305 JUMP JUMPDEST PUSH1 0x1 PUSH1 0x1 PUSH1 0xA0 SHL SUB DUP3 AND PUSH2 0x38D JUMPI PUSH1 0x0 DUP2 DUP2 MSTORE PUSH32 0x99574A7094154BB123AE6AE102096F0BF9679B85A5CD1E727AAA0AE5F132E6B4 PUSH1 0x20 MSTORE PUSH1 0x40 DUP2 KECCAK256 PUSH2 0x38D SWAP2 PUSH2 0x13CB JUMP JUMPDEST PUSH1 0x60 DUP5 EXTCODESIZE PUSH2 0x1326 JUMPI PUSH1 0x40 MLOAD PUSH4 0x2270D6BF PUSH1 0xE2 SHL DUP2 MSTORE PUSH1 0x4 ADD PUSH1 0x40 MLOAD DUP1 SWAP2 SUB SWAP1 REVERT JUMPDEST PUSH1 0x0 DUP1 DUP7 PUSH1 0x1 PUSH1 0x1 PUSH1 0xA0 SHL SUB AND DUP6 DUP8 PUSH1 0x40 MLOAD PUSH2 0x1342 SWAP2 SWAP1 PUSH2 0x17DE JUMP JUMPDEST PUSH1 0x0 PUSH1 0x40 MLOAD DUP1 DUP4 SUB DUP2 DUP6 DUP8 GAS CALL SWAP3 POP POP POP RETURNDATASIZE DUP1 PUSH1 0x0 DUP2 EQ PUSH2 0x137F JUMPI PUSH1 0x40 MLOAD SWAP2 POP PUSH1 0x1F NOT PUSH1 0x3F RETURNDATASIZE ADD AND DUP3 ADD PUSH1 0x40 MSTORE RETURNDATASIZE DUP3 MSTORE RETURNDATASIZE PUSH1 0x0 PUSH1 0x20 DUP5 ADD RETURNDATACOPY PUSH2 0x1384 JUMP JUMPDEST PUSH1 0x60 SWAP2 POP JUMPDEST POP SWAP2 POP SWAP2 POP DUP2 ISZERO PUSH2 0x1398 JUMPI SWAP2 POP PUSH2 0xB7E SWAP1 POP JUMP JUMPDEST DUP1 MLOAD ISZERO PUSH2 0x13A8 JUMPI DUP1 MLOAD DUP1 DUP3 PUSH1 0x20 ADD REVERT JUMPDEST DUP4 PUSH1 0x40 MLOAD PUSH3 0x461BCD PUSH1 0xE5 SHL DUP2 MSTORE PUSH1 0x4 ADD PUSH2 0x13C2 SWAP2 SWAP1 PUSH2 0x14A4 JUMP JUMPDEST PUSH1 0x40 MLOAD DUP1 SWAP2 SUB SWAP1 REVERT JUMPDEST POP DUP1 SLOAD PUSH2 0x13D7 SWAP1 PUSH2 0x16EF JUMP JUMPDEST PUSH1 0x0 DUP3 SSTORE DUP1 PUSH1 0x1F LT PUSH2 0x13E7 JUMPI POP POP JUMP JUMPDEST PUSH1 0x1F ADD PUSH1 0x20 SWAP1 DIV SWAP1 PUSH1 0x0 MSTORE PUSH1 0x20 PUSH1 0x0 KECCAK256 SWAP1 DUP2 ADD SWAP1 PUSH2 0x1405 SWAP2 SWAP1 PUSH2 0x1408 JUMP JUMPDEST POP JUMP JUMPDEST JUMPDEST DUP1 DUP3 GT ISZERO PUSH2 0x141D JUMPI PUSH1 0x0 DUP2 SSTORE PUSH1 0x1 ADD PUSH2 0x1409 JUMP JUMPDEST POP SWAP1 JUMP JUMPDEST PUSH1 0x1 PUSH1 0x1 PUSH1 0xE0 SHL SUB NOT DUP2 AND DUP2 EQ PUSH2 0x1405 JUMPI PUSH1 0x0 DUP1 REVERT JUMPDEST PUSH1 0x0 PUSH1 0x20 DUP3 DUP5 SUB SLT ISZERO PUSH2 0x1449 JUMPI PUSH1 0x0 DUP1 REVERT JUMPDEST DUP2 CALLDATALOAD PUSH2 0x39E DUP2 PUSH2 0x1421 JUMP JUMPDEST PUSH1 0x0 JUMPDEST DUP4 DUP2 LT ISZERO PUSH2 0x146F JUMPI DUP2 DUP2 ADD MLOAD DUP4 DUP3 ADD MSTORE PUSH1 0x20 ADD PUSH2 0x1457 JUMP JUMPDEST POP POP PUSH1 0x0 SWAP2 ADD MSTORE JUMP JUMPDEST PUSH1 0x0 DUP2 MLOAD DUP1 DUP5 MSTORE PUSH2 0x1490 DUP2 PUSH1 0x20 DUP7 ADD PUSH1 0x20 DUP7 ADD PUSH2 0x1454 JUMP JUMPDEST PUSH1 0x1F ADD PUSH1 0x1F NOT AND SWAP3 SWAP1 SWAP3 ADD PUSH1 0x20 ADD SWAP3 SWAP2 POP POP JUMP JUMPDEST PUSH1 0x20 DUP2 MSTORE PUSH1 0x0 PUSH2 0x39E PUSH1 0x20 DUP4 ADD DUP5 PUSH2 0x1478 JUMP JUMPDEST PUSH1 0x0 PUSH1 0x20 DUP3 DUP5 SUB SLT ISZERO PUSH2 0x14C9 JUMPI PUSH1 0x0 DUP1 REVERT JUMPDEST POP CALLDATALOAD SWAP2 SWAP1 POP JUMP JUMPDEST DUP1 CALLDATALOAD PUSH1 0x1 PUSH1 0x1 PUSH1 0xA0 SHL SUB DUP2 AND DUP2 EQ PUSH2 0x14E7 JUMPI PUSH1 0x0 DUP1 REVERT JUMPDEST SWAP2 SWAP1 POP JUMP JUMPDEST PUSH1 0x0 DUP1 PUSH1 0x40 DUP4 DUP6 SUB SLT ISZERO PUSH2 0x14FF JUMPI PUSH1 0x0 DUP1 REVERT JUMPDEST PUSH2 0x1508 DUP4 PUSH2 0x14D0 JUMP JUMPDEST SWAP5 PUSH1 0x20 SWAP4 SWAP1 SWAP4 ADD CALLDATALOAD SWAP4 POP POP POP JUMP JUMPDEST PUSH1 0x0 DUP1 PUSH1 0x0 PUSH1 0x60 DUP5 DUP7 SUB SLT ISZERO PUSH2 0x152B JUMPI PUSH1 0x0 DUP1 REVERT JUMPDEST PUSH2 0x1534 DUP5 PUSH2 0x14D0 JUMP JUMPDEST SWAP3 POP PUSH2 0x1542 PUSH1 0x20 DUP6 ADD PUSH2 0x14D0 JUMP JUMPDEST SWAP2 POP PUSH1 0x40 DUP5 ADD CALLDATALOAD SWAP1 POP SWAP3 POP SWAP3 POP SWAP3 JUMP JUMPDEST PUSH1 0x0 PUSH1 0x20 DUP3 DUP5 SUB SLT ISZERO PUSH2 0x1564 JUMPI PUSH1 0x0 DUP1 REVERT JUMPDEST PUSH2 0x39E DUP3 PUSH2 0x14D0 JUMP JUMPDEST PUSH1 0x0 DUP1 PUSH1 0x40 DUP4 DUP6 SUB SLT ISZERO PUSH2 0x1580 JUMPI PUSH1 0x0 DUP1 REVERT JUMPDEST PUSH2 0x1589 DUP4 PUSH2 0x14D0 JUMP JUMPDEST SWAP2 POP PUSH1 0x20 DUP4 ADD CALLDATALOAD DUP1 ISZERO ISZERO DUP2 EQ PUSH2 0x159E JUMPI PUSH1 0x0 DUP1 REVERT JUMPDEST DUP1 SWAP2 POP POP SWAP3 POP SWAP3 SWAP1 POP JUMP JUMPDEST PUSH4 0x4E487B71 PUSH1 0xE0 SHL PUSH1 0x0 MSTORE PUSH1 0x41 PUSH1 0x4 MSTORE PUSH1 0x24 PUSH1 0x0 REVERT JUMPDEST PUSH1 0x0 DUP1 PUSH1 0x0 DUP1 PUSH1 0x80 DUP6 DUP8 SUB SLT ISZERO PUSH2 0x15D5 JUMPI PUSH1 0x0 DUP1 REVERT JUMPDEST PUSH2 0x15DE DUP6 PUSH2 0x14D0 JUMP JUMPDEST SWAP4 POP PUSH2 0x15EC PUSH1 0x20 DUP7 ADD PUSH2 0x14D0 JUMP JUMPDEST SWAP3 POP PUSH1 0x40 DUP6 ADD CALLDATALOAD SWAP2 POP PUSH1 0x60 DUP6 ADD CALLDATALOAD PUSH8 0xFFFFFFFFFFFFFFFF DUP1 DUP3 GT ISZERO PUSH2 0x1610 JUMPI PUSH1 0x0 DUP1 REVERT JUMPDEST DUP2 DUP8 ADD SWAP2 POP DUP8 PUSH1 0x1F DUP4 ADD SLT PUSH2 0x1624 JUMPI PUSH1 0x0 DUP1 REVERT JUMPDEST DUP2 CALLDATALOAD DUP2 DUP2 GT ISZERO PUSH2 0x1636 JUMPI PUSH2 0x1636 PUSH2 0x15A9 JUMP JUMPDEST PUSH1 0x40 MLOAD PUSH1 0x1F DUP3 ADD PUSH1 0x1F NOT SWAP1 DUP2 AND PUSH1 0x3F ADD AND DUP2 ADD SWAP1 DUP4 DUP3 GT DUP2 DUP4 LT OR ISZERO PUSH2 0x165E JUMPI PUSH2 0x165E PUSH2 0x15A9 JUMP JUMPDEST DUP2 PUSH1 0x40 MSTORE DUP3 DUP2 MSTORE DUP11 PUSH1 0x20 DUP5 DUP8 ADD ADD GT ISZERO PUSH2 0x1677 JUMPI PUSH1 0x0 DUP1 REVERT JUMPDEST DUP3 PUSH1 0x20 DUP7 ADD PUSH1 0x20 DUP4 ADD CALLDATACOPY PUSH1 0x0 PUSH1 0x20 DUP5 DUP4 ADD ADD MSTORE DUP1 SWAP6 POP POP POP POP POP POP SWAP3 SWAP6 SWAP2 SWAP5 POP SWAP3 POP JUMP JUMPDEST PUSH1 0x0 DUP1 PUSH1 0x40 DUP4 DUP6 SUB SLT ISZERO PUSH2 0x16AE JUMPI PUSH1 0x0 DUP1 REVERT JUMPDEST PUSH2 0x16B7 DUP4 PUSH2 0x14D0 JUMP JUMPDEST SWAP2 POP PUSH2 0x16C5 PUSH1 0x20 DUP5 ADD PUSH2 0x14D0 JUMP JUMPDEST SWAP1 POP SWAP3 POP SWAP3 SWAP1 POP JUMP JUMPDEST DUP1 DUP3 ADD DUP1 DUP3 GT ISZERO PUSH2 0x34A JUMPI PUSH4 0x4E487B71 PUSH1 0xE0 SHL PUSH1 0x0 MSTORE PUSH1 0x11 PUSH1 0x4 MSTORE PUSH1 0x24 PUSH1 0x0 REVERT JUMPDEST PUSH1 0x1 DUP2 DUP2 SHR SWAP1 DUP3 AND DUP1 PUSH2 0x1703 JUMPI PUSH1 0x7F DUP3 AND SWAP2 POP JUMPDEST PUSH1 0x20 DUP3 LT DUP2 SUB PUSH2 0x1723 JUMPI PUSH4 0x4E487B71 PUSH1 0xE0 SHL PUSH1 0x0 MSTORE PUSH1 0x22 PUSH1 0x4 MSTORE PUSH1 0x24 PUSH1 0x0 REVERT JUMPDEST POP SWAP2 SWAP1 POP JUMP JUMPDEST PUSH1 0x0 DUP4 MLOAD PUSH2 0x173B DUP2 DUP5 PUSH1 0x20 DUP9 ADD PUSH2 0x1454 JUMP JUMPDEST DUP4 MLOAD SWAP1 DUP4 ADD SWAP1 PUSH2 0x174F DUP2 DUP4 PUSH1 0x20 DUP9 ADD PUSH2 0x1454 JUMP JUMPDEST ADD SWAP5 SWAP4 POP POP POP POP JUMP JUMPDEST PUSH4 0x4E487B71 PUSH1 0xE0 SHL PUSH1 0x0 MSTORE PUSH1 0x32 PUSH1 0x4 MSTORE PUSH1 0x24 PUSH1 0x0 REVERT JUMPDEST PUSH1 0x1 PUSH1 0x1 PUSH1 0xA0 SHL SUB DUP6 DUP2 AND DUP3 MSTORE DUP5 AND PUSH1 0x20 DUP3 ADD MSTORE PUSH1 0x40 DUP2 ADD DUP4 SWAP1 MSTORE PUSH1 0x80 PUSH1 0x60 DUP3 ADD DUP2 SWAP1 MSTORE PUSH1 0x0 SWAP1 PUSH2 0x17A1 SWAP1 DUP4 ADD DUP5 PUSH2 0x1478 JUMP JUMPDEST SWAP7 SWAP6 POP POP POP POP POP POP JUMP JUMPDEST PUSH1 0x0 PUSH1 0x20 DUP3 DUP5 SUB SLT ISZERO PUSH2 0x17BD JUMPI PUSH1 0x0 DUP1 REVERT JUMPDEST DUP2 MLOAD PUSH2 0x39E DUP2 PUSH2 0x1421 JUMP JUMPDEST PUSH4 0x4E487B71 PUSH1 0xE0 SHL PUSH1 0x0 MSTORE PUSH1 0x31 PUSH1 0x4 MSTORE PUSH1 0x24 PUSH1 0x0 REVERT JUMPDEST PUSH1 0x0 DUP3 MLOAD PUSH2 0x17F0 DUP2 DUP5 PUSH1 0x20 DUP8 ADD PUSH2 0x1454 JUMP JUMPDEST SWAP2 SWAP1 SWAP2 ADD SWAP3 SWAP2 POP POP JUMP INVALID GASLIMIT MSTORE NUMBER CALLDATACOPY ORIGIN BALANCE GASPRICE KECCAK256 PUSH21 0x72616E7366657220746F206E6F6E20455243373231 MSTORE PUSH6 0x636569766572 KECCAK256 PUSH10 0x6D706C656D656E746572 EXTCODECOPY PUSH28 0xF052874FA81625121783266A03507BD2CD48B16E571C01A04E8DD3FB SMOD 0xA8 EXTCODECOPY PUSH28 0xF052874FA81625121783266A03507BD2CD48B16E571C01A04E8DD3FB SMOD 0xA6 LOG2 PUSH5 0x6970667358 0x22 SLT KECCAK256 BLOCKHASH 0xBF NUMBER CALLVALUE LOG0 CODESIZE 0x1E RETURN DUP11 0xC0 PUSH26 0xAC6F9336ECD6BE8B7B1C9A9E93CE16A2300896ED9764736F6C63 NUMBER STOP ADDMOD GT STOP CALLER "},"gasEstimates":{"creation":{"codeDepositCost":"1261200","executionCost":"1315","totalCost":"1262515"},"external":{"approve(address,uint256)":"infinite","balanceOf(address)":"infinite","getApproved(uint256)":"infinite","isApprovedForAll(address,address)":"infinite","mintNft()":"infinite","name()":"infinite","ownerOf(uint256)":"infinite","safeTransferFrom(address,address,uint256)":"infinite","safeTransferFrom(address,address,uint256,bytes)":"infinite","setApprovalForAll(address,bool)":"26681","supportsInterface(bytes4)":"2585","symbol()":"infinite","tokenByIndex(uint256)":"infinite","tokenOfOwnerByIndex(address,uint256)":"infinite","tokenURI(uint256)":"infinite","totalSupply()":"infinite","transferFrom(address,address,uint256)":"infinite"},"internal":{"_tokenURI(uint256)":"infinite"}},"methodIdentifiers":{"approve(address,uint256)":"095ea7b3","balanceOf(address)":"70a08231","getApproved(uint256)":"081812fc","isApprovedForAll(address,address)":"e985e9c5","mintNft()":"c2229fea","name()":"06fdde03","ownerOf(uint256)":"6352211e","safeTransferFrom(address,address,uint256)":"42842e0e","safeTransferFrom(address,address,uint256,bytes)":"b88d4fde","setApprovalForAll(address,bool)":"a22cb465","supportsInterface(bytes4)":"01ffc9a7","symbol()":"95d89b41","tokenByIndex(uint256)":"4f6ccce7","tokenOfOwnerByIndex(address,uint256)":"2f745c59","tokenURI(uint256)":"c87b56dd","totalSupply()":"18160ddd","transferFrom(address,address,uint256)":"23b872dd"}},"storageLayout":{"storage":[],"types":null},"userdoc":{"kind":"user","methods":{"approve(address,uint256)":{"notice":"grant approval to given account to spend token"},"balanceOf(address)":{"notice":"query the balance of given address"},"getApproved(uint256)":{"notice":"get approval status for given token"},"isApprovedForAll(address,address)":{"notice":"query approval status of given operator with respect to given address"},"name()":{"notice":"inheritdoc IERC721Metadata"},"ownerOf(uint256)":{"notice":"query the owner of given token"},"safeTransferFrom(address,address,uint256)":{"notice":"transfer token between given addresses, checking for ERC721Receiver implementation if applicable"},"safeTransferFrom(address,address,uint256,bytes)":{"notice":"transfer token between given addresses, checking for ERC721Receiver implementation if applicable"},"setApprovalForAll(address,bool)":{"notice":"grant approval to or revoke approval from given account to spend all tokens held by sender"},"supportsInterface(bytes4)":{"notice":"query whether contract has registered support for given interface"},"symbol()":{"notice":"inheritdoc IERC721Metadata"},"tokenByIndex(uint256)":{"notice":"get token at given internal storage index"},"tokenOfOwnerByIndex(address,uint256)":{"notice":"get token of given owner at given internal storage index"},"tokenURI(uint256)":{"notice":"inheritdoc IERC721Metadata"},"totalSupply()":{"notice":"get total token supply"},"transferFrom(address,address,uint256)":{"notice":"transfer token between given addresses, without checking for ERC721Receiver implementation if applicable"}},"version":1}}}}