{
  "_format": "hh-sol-artifact-1",
  "contractName": "CustomNFT",
  "sourceName": "contracts/facets/NFTFacet.sol",
  "abi": [
    {
      "inputs": [],
      "name": "AddressUtils__NotContract",
      "type": "error"
    },
    {
      "inputs": [],
      "name": "ERC165Base__InvalidInterfaceId",
      "type": "error"
    },
    {
      "inputs": [],
      "name": "ERC721Base__BalanceQueryZeroAddress",
      "type": "error"
    },
    {
      "inputs": [],
      "name": "ERC721Base__ERC721ReceiverNotImplemented",
      "type": "error"
    },
    {
      "inputs": [],
      "name": "ERC721Base__InvalidOwner",
      "type": "error"
    },
    {
      "inputs": [],
      "name": "ERC721Base__MintToZeroAddress",
      "type": "error"
    },
    {
      "inputs": [],
      "name": "ERC721Base__NonExistentToken",
      "type": "error"
    },
    {
      "inputs": [],
      "name": "ERC721Base__NotOwnerOrApproved",
      "type": "error"
    },
    {
      "inputs": [],
      "name": "ERC721Base__NotTokenOwner",
      "type": "error"
    },
    {
      "inputs": [],
      "name": "ERC721Base__SelfApproval",
      "type": "error"
    },
    {
      "inputs": [],
      "name": "ERC721Base__TokenAlreadyMinted",
      "type": "error"
    },
    {
      "inputs": [],
      "name": "ERC721Base__TransferToZeroAddress",
      "type": "error"
    },
    {
      "inputs": [],
      "name": "ERC721Metadata__NonExistentToken",
      "type": "error"
    },
    {
      "inputs": [],
      "name": "EnumerableMap__IndexOutOfBounds",
      "type": "error"
    },
    {
      "inputs": [],
      "name": "EnumerableMap__NonExistentKey",
      "type": "error"
    },
    {
      "inputs": [],
      "name": "EnumerableSet__IndexOutOfBounds",
      "type": "error"
    },
    {
      "inputs": [],
      "name": "SolidStateERC721__PayableApproveNotSupported",
      "type": "error"
    },
    {
      "inputs": [],
      "name": "SolidStateERC721__PayableTransferNotSupported",
      "type": "error"
    },
    {
      "anonymous": false,
      "inputs": [
        {
          "indexed": true,
          "internalType": "address",
          "name": "owner",
          "type": "address"
        },
        {
          "indexed": true,
          "internalType": "address",
          "name": "operator",
          "type": "address"
        },
        {
          "indexed": true,
          "internalType": "uint256",
          "name": "tokenId",
          "type": "uint256"
        }
      ],
      "name": "Approval",
      "type": "event"
    },
    {
      "anonymous": false,
      "inputs": [
        {
          "indexed": true,
          "internalType": "address",
          "name": "owner",
          "type": "address"
        },
        {
          "indexed": true,
          "internalType": "address",
          "name": "operator",
          "type": "address"
        },
        {
          "indexed": false,
          "internalType": "bool",
          "name": "approved",
          "type": "bool"
        }
      ],
      "name": "ApprovalForAll",
      "type": "event"
    },
    {
      "anonymous": false,
      "inputs": [
        {
          "indexed": true,
          "internalType": "address",
          "name": "from",
          "type": "address"
        },
        {
          "indexed": true,
          "internalType": "address",
          "name": "to",
          "type": "address"
        },
        {
          "indexed": true,
          "internalType": "uint256",
          "name": "tokenId",
          "type": "uint256"
        }
      ],
      "name": "Transfer",
      "type": "event"
    },
    {
      "inputs": [
        {
          "internalType": "address",
          "name": "operator",
          "type": "address"
        },
        {
          "internalType": "uint256",
          "name": "tokenId",
          "type": "uint256"
        }
      ],
      "name": "approve",
      "outputs": [],
      "stateMutability": "payable",
      "type": "function"
    },
    {
      "inputs": [
        {
          "internalType": "address",
          "name": "account",
          "type": "address"
        }
      ],
      "name": "balanceOf",
      "outputs": [
        {
          "internalType": "uint256",
          "name": "",
          "type": "uint256"
        }
      ],
      "stateMutability": "view",
      "type": "function"
    },
    {
      "inputs": [
        {
          "internalType": "uint256",
          "name": "tokenId",
          "type": "uint256"
        }
      ],
      "name": "getApproved",
      "outputs": [
        {
          "internalType": "address",
          "name": "",
          "type": "address"
        }
      ],
      "stateMutability": "view",
      "type": "function"
    },
    {
      "inputs": [
        {
          "internalType": "address",
          "name": "account",
          "type": "address"
        },
        {
          "internalType": "address",
          "name": "operator",
          "type": "address"
        }
      ],
      "name": "isApprovedForAll",
      "outputs": [
        {
          "internalType": "bool",
          "name": "",
          "type": "bool"
        }
      ],
      "stateMutability": "view",
      "type": "function"
    },
    {
      "inputs": [],
      "name": "mintNft",
      "outputs": [],
      "stateMutability": "nonpayable",
      "type": "function"
    },
    {
      "inputs": [],
      "name": "name",
      "outputs": [
        {
          "internalType": "string",
          "name": "",
          "type": "string"
        }
      ],
      "stateMutability": "view",
      "type": "function"
    },
    {
      "inputs": [
        {
          "internalType": "uint256",
          "name": "tokenId",
          "type": "uint256"
        }
      ],
      "name": "ownerOf",
      "outputs": [
        {
          "internalType": "address",
          "name": "",
          "type": "address"
        }
      ],
      "stateMutability": "view",
      "type": "function"
    },
    {
      "inputs": [
        {
          "internalType": "address",
          "name": "from",
          "type": "address"
        },
        {
          "internalType": "address",
          "name": "to",
          "type": "address"
        },
        {
          "internalType": "uint256",
          "name": "tokenId",
          "type": "uint256"
        }
      ],
      "name": "safeTransferFrom",
      "outputs": [],
      "stateMutability": "payable",
      "type": "function"
    },
    {
      "inputs": [
        {
          "internalType": "address",
          "name": "from",
          "type": "address"
        },
        {
          "internalType": "address",
          "name": "to",
          "type": "address"
        },
        {
          "internalType": "uint256",
          "name": "tokenId",
          "type": "uint256"
        },
        {
          "internalType": "bytes",
          "name": "data",
          "type": "bytes"
        }
      ],
      "name": "safeTransferFrom",
      "outputs": [],
      "stateMutability": "payable",
      "type": "function"
    },
    {
      "inputs": [
        {
          "internalType": "address",
          "name": "operator",
          "type": "address"
        },
        {
          "internalType": "bool",
          "name": "status",
          "type": "bool"
        }
      ],
      "name": "setApprovalForAll",
      "outputs": [],
      "stateMutability": "nonpayable",
      "type": "function"
    },
    {
      "inputs": [
        {
          "internalType": "bytes4",
          "name": "interfaceId",
          "type": "bytes4"
        }
      ],
      "name": "supportsInterface",
      "outputs": [
        {
          "internalType": "bool",
          "name": "",
          "type": "bool"
        }
      ],
      "stateMutability": "view",
      "type": "function"
    },
    {
      "inputs": [],
      "name": "symbol",
      "outputs": [
        {
          "internalType": "string",
          "name": "",
          "type": "string"
        }
      ],
      "stateMutability": "view",
      "type": "function"
    },
    {
      "inputs": [
        {
          "internalType": "uint256",
          "name": "index",
          "type": "uint256"
        }
      ],
      "name": "tokenByIndex",
      "outputs": [
        {
          "internalType": "uint256",
          "name": "",
          "type": "uint256"
        }
      ],
      "stateMutability": "view",
      "type": "function"
    },
    {
      "inputs": [
        {
          "internalType": "address",
          "name": "owner",
          "type": "address"
        },
        {
          "internalType": "uint256",
          "name": "index",
          "type": "uint256"
        }
      ],
      "name": "tokenOfOwnerByIndex",
      "outputs": [
        {
          "internalType": "uint256",
          "name": "",
          "type": "uint256"
        }
      ],
      "stateMutability": "view",
      "type": "function"
    },
    {
      "inputs": [
        {
          "internalType": "uint256",
          "name": "tokenId",
          "type": "uint256"
        }
      ],
      "name": "tokenURI",
      "outputs": [
        {
          "internalType": "string",
          "name": "",
          "type": "string"
        }
      ],
      "stateMutability": "view",
      "type": "function"
    },
    {
      "inputs": [],
      "name": "totalSupply",
      "outputs": [
        {
          "internalType": "uint256",
          "name": "",
          "type": "uint256"
        }
      ],
      "stateMutability": "view",
      "type": "function"
    },
    {
      "inputs": [
        {
          "internalType": "address",
          "name": "from",
          "type": "address"
        },
        {
          "internalType": "address",
          "name": "to",
          "type": "address"
        },
        {
          "internalType": "uint256",
          "name": "tokenId",
          "type": "uint256"
        }
      ],
      "name": "transferFrom",
      "outputs": [],
      "stateMutability": "payable",
      "type": "function"
    }
  ],
  "bytecode": "0x608060405234801561001057600080fd5b506118a2806100206000396000f3fe6080604052600436106100fe5760003560e01c80634f6ccce711610095578063a22cb46511610064578063a22cb46514610285578063b88d4fde146102a5578063c2229fea146102b8578063c87b56dd146102cd578063e985e9c5146102ed57600080fd5b80634f6ccce7146102105780636352211e1461023057806370a082311461025057806395d89b411461027057600080fd5b806318160ddd116100d157806318160ddd146101a757806323b872dd146101ca5780632f745c59146101dd57806342842e0e146101fd57600080fd5b806301ffc9a71461010357806306fdde0314610138578063081812fc1461015a578063095ea7b314610192575b600080fd5b34801561010f57600080fd5b5061012361011e366004611437565b61030d565b60405190151581526020015b60405180910390f35b34801561014457600080fd5b5061014d610350565b60405161012f91906114a4565b34801561016657600080fd5b5061017a6101753660046114b7565b61035f565b6040516001600160a01b03909116815260200161012f565b6101a56101a03660046114ec565b61036a565b005b3480156101b357600080fd5b506101bc610378565b60405190815260200161012f565b6101a56101d8366004611516565b610382565b3480156101e957600080fd5b506101bc6101f83660046114ec565b610392565b6101a561020b366004611516565b6103a5565b34801561021c57600080fd5b506101bc61022b3660046114b7565b6103b0565b34801561023c57600080fd5b5061017a61024b3660046114b7565b6103bb565b34801561025c57600080fd5b506101bc61026b366004611552565b6103c6565b34801561027c57600080fd5b5061014d6103d1565b34801561029157600080fd5b506101a56102a036600461156d565b6103db565b6101a56102b33660046115bf565b6103e5565b3480156102c457600080fd5b506101a56103f7565b3480156102d957600080fd5b5061014d6102e83660046114b7565b610439565b3480156102f957600080fd5b5061012361030836600461169b565b610444565b6001600160e01b0319811660009081527ffc606c433378e3a7e0a6a531deac289b66caa1b4aa8554fd4ab2c6f1570f92d8602052604081205460ff165b92915050565b606061035a610450565b905090565b600061034a82610501565b6103748282610564565b5050565b600061035a610667565b61038d838383610680565b505050565b600061039e83836106be565b9392505050565b61038d8383836106ed565b600061034a82610708565b600061034a82610729565b600061034a8261076d565b606061035a6107c4565b61037482826107f5565b6103f1848484846108a9565b50505050565b7fadf495216b7be092d4d941efc0aab5b86b90569ad4e5e8dcee191189770143488054600182600061042983856116ce565b90915550610374905033826108e8565b606061034a826109cb565b600061039e8383610a4c565b60607f99574a7094154bb123ae6ae102096f0bf9679b85a5cd1e727aaa0ae5f132e6b1805461047e906116ef565b80601f01602080910402602001604051908101604052809291908181526020018280546104aa906116ef565b80156104f75780601f106104cc576101008083540402835291602001916104f7565b820191906000526020600020905b8154815290600101906020018083116104da57829003601f168201915b5050505050905090565b600061050c82610a99565b6105295760405163c1b843ef60e01b815260040160405180910390fd5b5060009081527f3c7bf052874fa81625121783266a03507bd2cd48b16e571c01a04e8dd3fb07a960205260409020546001600160a01b031690565b61056f828234610ab3565b600061057a82610729565b9050806001600160a01b0316836001600160a01b0316036105ae5760405163424a22cb60e01b815260040160405180910390fd5b336001600160a01b038216148015906105ce57506105cc8133610a4c565b155b156105ec57604051632f5de44f60e01b815260040160405180910390fd5b60008281527f3c7bf052874fa81625121783266a03507bd2cd48b16e571c01a04e8dd3fb07a9602052604080822080546001600160a01b0319166001600160a01b0387811691821790925591518593918516917f8c5be1e5ebec7d5bd14f71427d1e84f3dd0314c0f7b2291e5b200ac8c7c3b92591a4505050565b600061035a60008051602061184d833981519152610ad2565b61068c83838334610adc565b6106963382610b00565b6106b357604051632f5de44f60e01b815260040160405180910390fd5b61038d838383610b86565b6001600160a01b038216600090815260008051602061182d8339815191526020526040812061039e9083610d03565b61038d838383604051806020016040528060008152506108a9565b600061072260008051602061184d83398151915283610d0f565b5092915050565b60008061074460008051602061184d83398151915284610d2b565b90506001600160a01b03811661034a57604051637e1a7d8b60e01b815260040160405180910390fd5b60006001600160a01b03821661079657604051630810ff9760e41b815260040160405180910390fd5b6001600160a01b038216600090815260008051602061182d8339815191526020526040902061034a90610ad2565b60607f99574a7094154bb123ae6ae102096f0bf9679b85a5cd1e727aaa0ae5f132e6b1600101805461047e906116ef565b336001600160a01b0383160361081e5760405163424a22cb60e01b815260040160405180910390fd5b3360008181527f3c7bf052874fa81625121783266a03507bd2cd48b16e571c01a04e8dd3fb07aa602090815260408083206001600160a01b03871680855290835292819020805460ff191686151590811790915590519081529192917f17307eab39ab6107e8899845ad3d59bd9653f200f220920489ca2b5937696c31910160405180910390a35050565b6108b584848434610adc565b6108bf3383610b00565b6108dc57604051632f5de44f60e01b815260040160405180910390fd5b6103f184848484610d37565b6001600160a01b03821661090f576040516311f2988d60e11b815260040160405180910390fd5b61091881610a99565b1561093657604051630d86bb7b60e31b815260040160405180910390fd5b61094260008383610d6b565b6001600160a01b038216600090815260008051602061182d8339815191526020526040902060008051602061184d833981519152906109819083610d76565b5061098d818385610d82565b5060405182906001600160a01b038516906000907fddf252ad1be2c89b69c2b068fc378daa952ba7f163c4a11628f55a4df523b3ef908290a4505050565b60606109d682610a99565b6109f257604051624705a760e71b815260040160405180910390fd5b60408051808201909152601181527001d2234b0b6b7b7321027232a1034b21d1607d1b602082015280610a2484610d98565b604051602001610a35929190611729565b604051602081830303815290604052915050919050565b6001600160a01b0391821660009081527f3c7bf052874fa81625121783266a03507bd2cd48b16e571c01a04e8dd3fb07aa6020908152604080832093909416825291909152205460ff1690565b600061034a60008051602061184d83398151915283610e2b565b801561038d5760405163b56d7c1b60e01b815260040160405180910390fd5b600061034a825490565b8015610afb576040516322b1813960e01b815260040160405180910390fd5b6103f1565b6000610b0b82610a99565b610b285760405163c1b843ef60e01b815260040160405180910390fd5b6000610b3383610729565b9050806001600160a01b0316846001600160a01b03161480610b6e5750836001600160a01b0316610b6384610501565b6001600160a01b0316145b80610b7e5750610b7e8185610a4c565b949350505050565b6000610b9182610729565b9050836001600160a01b0316816001600160a01b031614610bc557604051630f2db4ad60e01b815260040160405180910390fd5b6001600160a01b038316610bec576040516340311a0960e01b815260040160405180910390fd5b610bf7848484610d6b565b6001600160a01b038416600090815260008051602061182d8339815191526020526040902060008051602061184d83398151915290610c369084610e43565b506001600160a01b03841660009081526002820160205260409020610c5b9084610d76565b50610c67818486610d82565b50600083815260038201602052604080822080546001600160a01b0319169055518491906001600160a01b038516907f8c5be1e5ebec7d5bd14f71427d1e84f3dd0314c0f7b2291e5b200ac8c7c3b925908390a482846001600160a01b0316866001600160a01b03167fddf252ad1be2c89b69c2b068fc378daa952ba7f163c4a11628f55a4df523b3ef60405160405180910390a45050505050565b600061039e8383610e4f565b6000808080610d1e8686610e9b565b9097909650945050505050565b600061039e8383610efe565b610d42848484610b86565b610d4e84848484610f62565b6103f157604051639ff10cdd60e01b815260040160405180910390fd5b61038d838383611033565b600061039e838361103e565b6000610b7e84846001600160a01b038516611081565b60606000610da583611120565b600101905060008167ffffffffffffffff811115610dc557610dc56115a9565b6040519080825280601f01601f191660200182016040528015610def576020820181803683370190505b5090508181016020015b600019016f181899199a1a9b1b9c1cb0b131b232b360811b600a86061a8153600a8504945084610df957509392505050565b6000818152600183016020526040812054151561039e565b600061039e83836111f8565b81546000908210610e735760405163e637bf3b60e01b815260040160405180910390fd5b826000018281548110610e8857610e88611758565b9060005260206000200154905092915050565b815460009081908310610ec15760405163022fd82760e31b815260040160405180910390fd5b6000846000018481548110610ed857610ed8611758565b906000526020600020906002020190508060000154816001015492509250509250929050565b6000818152600183016020526040812054808203610f2f57604051633d547ec560e21b815260040160405180910390fd5b836000016001820381548110610f4757610f47611758565b90600052602060002090600202016001015491505092915050565b60006001600160a01b0384163b610f7b57506001610b7e565b6000610ffc63150b7a0260e01b33888787604051602401610f9f949392919061176e565b604051602081830303815290604052906001600160e01b0319166020820180516001600160e01b0383818316178352505050506040518060600160405280603281526020016117fb603291396001600160a01b03881691906112b2565b905060008180602001905181019061101491906117ab565b6001600160e01b031916630a85bd0160e11b1492505050949350505050565b61038d8383836112c1565b600081815260018301602052604081205461034a575081546001808201845560008481526020808220909301849055845493815293810190915260409092205590565b60008281526001840160205260408120548082036110e857505060408051808201825283815260208082018481528654600181810189556000898152848120955160029093029095019182559151908201558654868452818801909252929091205561039e565b8285600001600183038154811061110157611101611758565b906000526020600020906002020160010181905550600091505061039e565b60008072184f03e93ff9f4daa797ed6e38ed64bf6a1f0160401b831061115f5772184f03e93ff9f4daa797ed6e38ed64bf6a1f0160401b830492506040015b6d04ee2d6d415b85acef8100000000831061118b576d04ee2d6d415b85acef8100000000830492506020015b662386f26fc1000083106111a957662386f26fc10000830492506010015b6305f5e10083106111c1576305f5e100830492506008015b61271083106111d557612710830492506004015b606483106111e7576064830492506002015b600a831061034a5760010192915050565b600081815260018301602052604081205480156107225783546000908590600019810190811061122a5761122a611758565b906000526020600020015490508085600001600184038154811061125057611250611758565b6000918252602080832090910192909255918252600186019052604090208190558354849080611282576112826117c8565b60008281526020808220830160001990810183905590920190925593815260019485019093525050604081205590565b6060610b7e8484600085611305565b6001600160a01b03821661038d5760008181527f99574a7094154bb123ae6ae102096f0bf9679b85a5cd1e727aaa0ae5f132e6b46020526040812061038d916113cb565b6060843b61132657604051632270d6bf60e21b815260040160405180910390fd5b600080866001600160a01b0316858760405161134291906117de565b60006040518083038185875af1925050503d806000811461137f576040519150601f19603f3d011682016040523d82523d6000602084013e611384565b606091505b50915091508115611398579150610b7e9050565b8051156113a85780518082602001fd5b8360405162461bcd60e51b81526004016113c291906114a4565b60405180910390fd5b5080546113d7906116ef565b6000825580601f106113e7575050565b601f0160209004906000526020600020908101906114059190611408565b50565b5b8082111561141d5760008155600101611409565b5090565b6001600160e01b03198116811461140557600080fd5b60006020828403121561144957600080fd5b813561039e81611421565b60005b8381101561146f578181015183820152602001611457565b50506000910152565b60008151808452611490816020860160208601611454565b601f01601f19169290920160200192915050565b60208152600061039e6020830184611478565b6000602082840312156114c957600080fd5b5035919050565b80356001600160a01b03811681146114e757600080fd5b919050565b600080604083850312156114ff57600080fd5b611508836114d0565b946020939093013593505050565b60008060006060848603121561152b57600080fd5b611534846114d0565b9250611542602085016114d0565b9150604084013590509250925092565b60006020828403121561156457600080fd5b61039e826114d0565b6000806040838503121561158057600080fd5b611589836114d0565b91506020830135801515811461159e57600080fd5b809150509250929050565b634e487b7160e01b600052604160045260246000fd5b600080600080608085870312156115d557600080fd5b6115de856114d0565b93506115ec602086016114d0565b925060408501359150606085013567ffffffffffffffff8082111561161057600080fd5b818701915087601f83011261162457600080fd5b813581811115611636576116366115a9565b604051601f8201601f19908116603f0116810190838211818310171561165e5761165e6115a9565b816040528281528a602084870101111561167757600080fd5b82602086016020830137600060208483010152809550505050505092959194509250565b600080604083850312156116ae57600080fd5b6116b7836114d0565b91506116c5602084016114d0565b90509250929050565b8082018082111561034a57634e487b7160e01b600052601160045260246000fd5b600181811c9082168061170357607f821691505b60208210810361172357634e487b7160e01b600052602260045260246000fd5b50919050565b6000835161173b818460208801611454565b83519083019061174f818360208801611454565b01949350505050565b634e487b7160e01b600052603260045260246000fd5b6001600160a01b03858116825284166020820152604081018390526080606082018190526000906117a190830184611478565b9695505050505050565b6000602082840312156117bd57600080fd5b815161039e81611421565b634e487b7160e01b600052603160045260246000fd5b600082516117f0818460208701611454565b919091019291505056fe4552433732313a207472616e7366657220746f206e6f6e20455243373231526563656976657220696d706c656d656e7465723c7bf052874fa81625121783266a03507bd2cd48b16e571c01a04e8dd3fb07a83c7bf052874fa81625121783266a03507bd2cd48b16e571c01a04e8dd3fb07a6a264697066735822122040bf4334a0381ef38ac079ac6f9336ecd6be8b7b1c9a9e93ce16a2300896ed9764736f6c63430008110033",
  "linkReferences": {},
  "deployedLinkReferences": {}
}